:020000040800F2
:1000000018050020010100086D02000865020008C3
:1000100069020008490100084F09000800000000BB
:100020000000000000000000000000007D04000847
:100030004D01000800000000F502000891050008CD
:100040001B0100081B0100081B0100081B01000820
:100050001B0100081B0100081B0100081B01000810
:100060001B0100081B0100081B0100081B01000800
:100070001B0100081B0100081B0100081B010008F0
:100080001B0100081B0100081B0100081B010008E0
:100090001B0100081B0100081B0100081B010008D0
:1000A0001B0100081B0100081B0100081B010008C0
:1000B0001B010008F50500081B0100081B010008D2
:1000C0001B0100081B0100081B0100081B010008A0
:1000D0001B010008990700081B0100081B0100080C
:1000E0001B0100081B0100081B010008DFF80CD0F1
:1000F00000F018F800480047510D000818050020CE
:100100000648804706480047FEE7FEE7FEE7FEE7B1
:10011000FEE7FEE7FEE7FEE7FEE7FEE795050008DF
:10012000ED000008064C074D06E0E06840F00103D2
:1001300094E8070098471034AC42F6D3FFF7DAFF93
:1001400080110008A011000800BFFEE770472DE9EC
:10015000F04102460025002600200023002400274D
:1001600091F803C00CF00F0591F803C00CF0100CCF
:10017000BCF1000F03D091F802C04CEA050591F8DC
:1001800000C0BCF1000F31D0146800202BE04FF00C
:10019000010C0CFA00F3B1F800C00CEA03069E4211
:1001A00020D183004FF00F0C0CFA03F7BC4305FA83
:1001B00003FC4CEA040491F803C0BCF1280F06D1FB
:1001C0004FF0010C0CFA00FCC2F814C00AE091F8E0
:1001D00003C0BCF1480F05D14FF0010C0CFA00FC34
:1001E000C2F810C0401C0828D1D31460B1F800C078
:1001F000BCF1FF0F34DD546800202EE000F1080C44
:100200004FF0010808FA0CF3B1F800C00CEA03063D
:100210009E4221D183004FF00F0C0CFA03F7BC4330
:1002200005FA03FC4CEA040491F803C0BCF1280F62
:1002300005D100F1080C08FA0CF8C2F8148091F806
:1002400003C0BCF1480F07D100F1080C4FF00108C2
:1002500008FA0CF8C2F81080401C0828CED354606D
:10026000BDE8F08100BFFEE700BFFEE77047000079
:1002700070B5002100230F22C47804B3154C246804
:1002800004F4E064C4F5E064210AC1F10403CA4047
:10029000447804FA03F184781440214309010E4C98
:1002A0000678A155047804F01F050124AC400578B8
:1002B0006D11AD0005F1E025C5F8004109E00478B5
:1002C00004F01F050124AC40044D0678761145F872
:1002D000264070BD0CED00E000E400E080E100E0AD
:1002E00002490143024A1160704700000000FA050C
:1002F0000CED00E07047000029B1064AD2690243C4
:10030000044BDA6104E0034AD2698243014BDA61AB
:10031000704700000010024029B1064A926902436A
:10032000044B9A6104E0034A92698243014B9A614B
:10033000704700000010024030B500210022002468
:1003400000232D4D6D6805F00C0121B1042905D065
:10035000082923D105E0294D056022E0274D0560DD
:100360001FE0254D6D6805F47012234D6D6805F48E
:100370008034022505EB92421CB9214D554305609E
:100380000BE01D4D6D6805F400351DB11C4D554346
:10039000056002E0194D5543056002E0174D056008
:1003A00000BF00BF144D6D6805F0F0010909154D3F
:1003B0006B5C0568DD4045600F4D6D6805F4E061DC
:1003C000090A104D6B5C4568DD4085600A4D6D681B
:1003D00005F46051C90A0B4D6B5C4568DD40C56092
:1003E000054D6D6805F44041890B074D6B5CC56890
:1003F000B5FBF3F5056130BD0010024000127A0034
:1004000000093D004C0000205C00002021B1028862
:1004100042F04002028004E002884FF6BF731A40A7
:10042000028070470246002013890B400BB1012067
:1004300000E000207047014688897047818170473D
:1004400010B50022028802F441520B884C882343E5
:100450008C882343CC8823430C8923434C89234332
:100460008C892343CC8923431A430280838B4FF228
:10047000FF74234083830B8A038210BD704710B53D
:1004800000F002F810BD00000CB5002001900090B3
:100490003348006840F480303149086000BF30487C
:1004A000006800F4003000900198401C0190009812
:1004B00018B90198B0F5A06FF1D12948006800F48F
:1004C000003010B10120009001E000200090009861
:1004D000012843D12348006840F0100021490860FA
:1004E0000846006820F0030008600846006840F0F5
:1004F000020008601A484068194948600846406888
:1005000048600846406840F480604860084640689B
:1005100020F47C1048600846406840F4E8104860C9
:100520000846006840F08070086000BF0C48006812
:1005300000F000700028F9D00948406820F003005E
:10054000074948600846406840F00200486000BF24
:100550000348406800F00C000828F9D10CBD0000E9
:100560000010024000200240042808D14FF0E02192
:10057000096941F004014FF0E022116107E04FF0FA
:10058000E021096921F004014FF0E0221161704778
:100590007047000010B51348006840F00100114991
:1005A000086008464068104908400E4948600846FF
:1005B00000680E4908400B4908600846006820F4AE
:1005C000802008600846406820F4FE0048604FF430
:1005D0001F008860FFF753FF4FF000600449086078
:1005E00010BD0000001002400000FFF8FFFFF6FE03
:1005F00008ED00E010B501210D4800F030F8B0B171
:1006000001210B4800F01CF80A480068401C094909
:10061000086009480068401C0749086008460068EF
:100620000A2804D10020086001200449087010BD88
:100630000004004014000020300000202D000020A5
:10064000CA430282704721B1028842F0010202804F
:1006500004E002884FF6FE731A400280704730B5FE
:100660000246002000230024158A05EA010395892B
:1006700005EA010413B10CB1012000E0002030BDF7
:100680001AB183890B43838102E083898B43838181
:1006900070470000002202881D4B98420ED01D4B6F
:1006A00098420BD0B0F1804F08D01B4B984205D038
:1006B0001A4B984202D01A4B984204D14FF68F73CE
:1006C0001A404B881A43174B984207D0164B984252
:1006D00004D04FF6FF431A40CB881A4302808B8820
:1006E00083850B8803850A4B98420BD0094B9842AF
:1006F00008D00E4B984205D00D4B984202D00D4BBE
:10070000984201D10B7A038601238382704700004F
:10071000002C01400034014000040040000800406B
:10072000000C004000100040001400400040014058
:1007300000440140004801401FB501210220FFF79D
:10074000DBFD40F2E730ADF808004720ADF80400CB
:100750000020ADF80A00ADF8060001A90D48FFF72A
:1007600099FF012211460B48FFF78AFF1D208DF8E3
:10077000000000208DF801008DF8020001208DF8A6
:1007800003006846FFF774FD01210248FFF75BFF95
:100790001FBD00000004004010B540F22551044880
:1007A00000F014F818B1024800F0CCF8C4B210BD43
:1007B0000038014021B1828942F40052828104E074
:1007C00082894DF6FF731A408281704770B50246E8
:1007D000002400230025002040F66A16B14200D113
:1007E00000BFC1F3421501F01F03012606FA03F30F
:1007F000012D02D19689334006E0022D02D1168ADE
:10080000334001E0968A33400C12012606FA04F4C4
:100810001688344013B10CB1012000E0002070BDF7
:10082000F0B50346002400260025002040F66A1794
:10083000B94200D100BF1846C1F3421401F01F06AF
:10084000012707FA06F5012C01D10C3004E0022C37
:1008500001D1103000E014301AB107682F4307604F
:1008600002E00768AF430760F0BD00002DE9F047E4
:1008700086B005460E460024A24600BFA1460027CA
:10088000B08900B100BF2F462C8A4CF6FF7004409F
:10089000F08804432C82AC894EF6F3100440B088F3
:1008A00031890843718908430443AC81AC8A4FF60F
:1008B000FF400440B0890443AC8201A8FFF73CFD2F
:1008C0001F48874202D1DDF810A001E0DDF80CA03E
:1008D000A88900F4004040B10AEBCA0000EB0A10FE
:1008E00031684900B0FBF1F807E00AEBCA0000EB01
:1008F0000A1031688900B0FBF1F86420B8FBF0F011
:1009000004012009642101FB1089A88900F400403A
:1009100040B1322000EBC900B0FBF1F000F007005D
:10092000044308E0322000EB09106421B0FBF1F031
:1009300000F00F0004432C8106B0BDE8F0870000F2
:100940000038014001468888C0F30800704700BFA6
:10095000FEE702E008C8121F08C1002AFAD170475A
:100960007047002001E001C1121F002AFBD170472F
:1009700070B5054600BF0B4800680028FBD1094947
:100980007C310860002406E0002000F07FFB287026
:100990006D1C601CC4B2092CF6DB012001497C31BE
:1009A000086070BD1001214270B5044600F010FBD4
:1009B00000F02EFB01203B49086000203A49C1F8B5
:1009C00084013849091F08604FF47A7000F0F4FA86
:1009D00001203549C1F88401642000F0EDFA1120AE
:1009E00000F0EEF8642000F0E7FA062000F0E8F8E6
:1009F0004FF47A7000F0E0FA112000F0E1F8642082
:100A000000F0DAFA09E00021202000F0B1F80546F4
:100A1000601EC4B2642000F0CFFA24480078A842D7
:100A200001D0002CEFDC2148407820F00700801C2A
:100A30001E4948700846807840F04000887008469B
:100A4000807840F0200088700846807820F0100000
:100A500088700846C07940F00800C8710846C0791F
:100A600020F00400001DC8710846807940F0C000E5
:100A700088710846807940F02000887108468079A6
:100A800040F0080088710846807920F00400001DBD
:100A900088710846807A20F00200801C8872204607
:100AA00070BD00008C012142000021426000002046
:100AB00010B52E48807820F002002C498870084636
:100AC000807820F0010088700846007920F08000CE
:100AD00008710846007920F0700040F0200008718D
:100AE0000846007920F00F0008710846407920F090
:100AF000800048710846407920F07000487108462F
:100B0000407920F00F0048710846407A40F080009C
:100B100048720846407A40F0400048720846407AE1
:100B200020F03C0040F0300048720846407A20F047
:100B300001004872112000F043F8642000F03CFAF4
:100B40000C220A49002000F055F80A2000F034FA7F
:100B5000102000F035F80A2000F02EFA082000F0EE
:100B60002FF80A2000F028FA10BD000060000020D5
:100B700070B504460D46002600201049086001208B
:100B800000F020FA204600F081FA002000F07EFA02
:100B900004F02000202804D1002000F077FA064657
:100BA00003E0284600F072FA0646012000F00AFA37
:100BB000012002490860304670BD00008C012142CE
:100BC00070B504460025002008490860642000F044
:100BD000F9F9204600F05AFA0546642000F0F2F9CF
:100BE00001200349C1F88C01284670BD8C012142C7
:100BF000000021422DE9F04106460C461546002032
:100C000012490860642000F0DDF946F0400000F071
:100C10003DFA642000F0D6F9691EC8B200F036FA39
:100C2000002708E0642000F0CDF9207800F02EFACB
:100C3000641C781CC7B2AF42F4DB642000F0C2F938
:100C4000012002490860BDE8F08100008C012142CA
:100C500010B56FF00400FFF787FC0A4800680A49E6
:100C6000B0FBF1F0094908700846007800EB40013C
:100C7000C1EBC0104FF6FF7101EAC00004490880C3
:100C800010BD00003400002000127A00480000204F
:100C90004A0000200146114A12884A434FF0E023DF
:100CA0005A6100229A611A46126942F001021A61E1
:100CB00000BF4FF0E022106900F001021AB100F409
:100CC0008032002AF5D04FF0E022126922F00102B2
:100CD0004FF0E0231A6100229A6170474A00002019
:100CE0000146114A12784A434FF0E0235A6100222C
:100CF0009A611A46126942F001021A6100BF4FF070
:100D0000E022106900F001021AB100F48032002ADA
:100D1000F5D04FF0E022126922F001024FF0E023FB
:100D20001A6100229A6170474800002001460020A5
:100D30000A7812044B7842EA03228B7842EA0300D5
:100D40000A7802F08002802A01D140F07F4070478B
:100D5000FFF77EFF4FF44070FFF7C2FA4FF47A308E
:100D600000F0BEF900BF0520FFF71EFE0028FAD0F4
:100D7000FFF79EFEFFF7E0FCFF2080490870FCE0D3
:100D80007F48FFF7F5FD7E48801DFFF7CFFF7D49C7
:100D9000086000207C49086000240FE07B49601C4B
:100DA00051F8200041F82400084650F82400764904
:100DB0000968084474490860601CC4B2082CEDDB63
:100DC00070480068714908626F4800686D49096899
:100DD0000844092190FBF1F06D4908606D486E49A7
:100DE000086040426D490860002425E06C49601CA1
:100DF00051F8200041F82400084650F824006749C3
:100E00000968884203DD664850F8240001E0634821
:100E1000006862490860624850F824005E49096829
:100E2000884203DA5E4850F8240001E05A4800681E
:100E300059490860601CC4B21D2CD7DB54480068B7
:100E4000574948675548006851490968884202DA9D
:100E50004F48006801E051480068504908604E481A
:100E600000684B490968884202DD4948006801E092
:100E70004948006848490860484800680968401ABD
:100E800047F23051884258DD46480068C82854D996
:100E9000444800684900B1FBF0F0C8284AD24148F4
:100EA0000068B1FBF0F0282844D93F4840783E491B
:100EB00008700846807848700846C07888700846F0
:100EC0000079C870084640790871084680794871F1
:100ED0000846C07988710846007AC8710846407A89
:100EE0000872304800684EF66021B1FBF0F02E49E0
:100EF000487208460078497808442B4989780844A4
:100F00002949C97808442849097908442649497972
:100F100008442549897908442349C9790844224964
:100F2000097A08442049497A08440A2190FBF1F0E3
:100F30001E49087000201B4908601D480078E0B178
:100F400000201B490870124800680C49C1F80100D4
:100F500016480078487100240DE000BF154800884D
:100F600000F040000028F9D00448005D1149091D37
:100F70000880601CC4B2062CEFDB01E727000020CC
:100F80006C000020000000200400002078000020F9
:100F900008000020404B4C00100000200C000020F6
:100FA0009C000020140000201D0000201C000020D8
:100FB0002D0000200038014010B50446A0B2FFF714
:100FC00069FE10BD10B504462046FFF789FE10BD2E
:100FD00008B501210420FFF79FF90E20ADF80000AD
:100FE00003208DF8020010208DF8030069460748A1
:100FF000FFF7ADF81020ADF8000048208DF8030091
:1010000069460248FFF7A3F808BD00000008014048
:1010100000B587B0012141F20400FFF77DF9E0201F
:10102000ADF8180003208DF81A0018208DF81B0069
:1010300006A91448FFF78BF80020ADF804004FF420
:101040008270ADF806000020ADF80800ADF80A0087
:101050000120ADF80C004002ADF80E002020ADF8E4
:1010600010000020ADF812000720ADF8140001A90F
:101070000548FFF7E5F901210348FFF7C7F907B075
:1010800000BD0000000801400030014070B5054679
:10109000002405E0601CC4B2C82C01DD002070BD36
:1010A00002210E48FFF7BEF90028F3D029460B486D
:1010B000FFF7C4F9002405E0601CC4B2C82C01DDB0
:1010C0000020ECE701210548FFF7ACF90028F3D038
:1010D0000248FFF7B0F9C0B2E1E70000003001407C
:1010E00010B586B00446012144F20400FFF714F95C
:1010F0004FF40070ADF8140003208DF8160018208E
:101100008DF8170005A91C48FFF721F84FF48060FF
:10111000ADF8140004208DF8170005A91648FFF754
:1011200016F825208DF8000003208DF801008DF8B9
:10113000020001208DF803006846FFF799F801943A
:101140000020ADF80800ADF80A00ADF80C00ADF8CD
:1011500010000C20ADF80E0001A90848FFF786FB2F
:10116000012240F225510548FFF75AFB01210348AF
:10117000FFF720FB06B010BD000801400038014019
:10118000A0110008000000206C00000052090008B7
:101190000C1200086C000020AC040000620900087A
:1011A000000000000000000000000000000000003F
:1011B000000000000000000000000000005050503F
:1011C00050505050505050000000000000000000EF
:1011D0000000000000A24A0400000000000000001F
:1011E00001020304060708090000000000000000D7
:1011F00001020304010203040607080902040608A9
:0C12000073028010000000000002030CCC
:0400000508000101ED
:00000001FF
