:020000040800F2
:10000000B810002001010008D9250008AB15000830
:10001000D5250008E90E0008F736000800000000AA
:10002000000000000000000000000000452F000854
:10003000E510000800000000A52D00085930000858
:100040001B0100081B0100081B0100081B01000820
:100050001B0100081B0100081B0100081B01000810
:100060001B0100081B0100081B0100081B01000800
:100070001B0100081B0100081B0100081B010008F0
:100080001B0100081B0100081B0100081B010008E0
:100090001B0100081B0100081B0100081B010008D0
:1000A0001B0100081B0100081B0100081B010008C0
:1000B0001B010008BD300008E13000081B010008EA
:1000C0001B0100081B0100081B0100081B010008A0
:1000D0001B0100087D33000805340008AD3400081A
:1000E0001B0100081B0100081B010008DFF80CD0F1
:1000F00000F068FD00480047D9580008B8100020FB
:100100000648804706480047FEE7FEE7FEE7FEE7B1
:10011000FEE7FEE7FEE7FEE7FEE7FEE75D300008EC
:10012000ED0000082DE9F0410024061B254671F181
:10013000000605DA01240027D0EB070067EB010178
:10014000161E73F1000605DA0027D2EB070201251F
:1001500067EB030300F0C0FB86460E4617469C463D
:10016000AC4204D00025D0EB050E65EB010624B1AE
:100170000020D2EB000760EB030C704631463A4694
:100180006346BDE8F08140EA01039B0703D009E024
:1001900008C9121F08C0042AFAD203E011F8013B73
:1001A00000F8013B521EF9D27047D2B201E000F8CC
:1001B000012B491EFBD270470022F6E710B513460B
:1001C0000A4604461946FFF7F0FF204610BD421EBE
:1001D00012F8013F002BFBD111F8013B02F8013B63
:1001E000002BF9D1704730B505462A460B4612F868
:1001F000010B13F8014B08B1A042F8D01CB1002844
:1002000002D06D1CF1E7284630BDCAB2401E10F87E
:10021000011F8A4202D00029F9D100207047421CF8
:1002200010F8011B0029FBD1801A704730B5044635
:100230000020034600E05B1C934203D2E05CCD5CEF
:10024000401BF8D030BD10B5044600E0401C0378D8
:10025000002BFBD100E0401C521E04D311F8013BDF
:100260000370002BF7D100210170204610BD03461A
:1002700011F8012B00F8012B002AF9D1184670471C
:10028000F0B480EA0102D40F4200B2EB410F02D277
:100290000246084611464A0042D0C30DDDB2C1F302
:1002A000C752AD1A202D35DAC1F3160141F4000210
:1002B00004B15242C5F1200602FA06F12A41104467
:1002C000B3EBD05F23D0C4B1012DA0EBC35009DC48
:1002D000F0BC4FF0004202EAC352DBB200F500006E
:1002E00000F065BB400000F1807000EBC350A0F14E
:1002F000807040EAD170490009E0490841EAC071C4
:10030000A0EBC35000F50000400800EBC350F0BC68
:1003100000F044BB6142012202EB4101001BF6E701
:10032000F0BC704781F00041AAE780F00040A7E7E9
:1003300080EA010210B502F00043400022D04A00DA
:100340001FD0010E01EB1261C0F35600C2F356023A
:1003500040F4000042F40002A0FB022000047F39B8
:10036000140400D0401C50EA124001D44000491E41
:10037000C2B20C0604EBD010401C4008802A02D008
:1003800003E0002010BD20F00100002900DA002069
:10039000184310BD30B480EA010202F0004530F08D
:1003A000004221F0004013D090B1C30DD40DC2F330
:1003B0001601C0F31600E41A41F4000140F40002F3
:1003C0007D34914201D3641C00E04900002C02DA24
:1003D00030BC002070474FF400000023914201D34D
:1003E000891A034340084FEA4101F7D151B19142C4
:1003F00002D14FF0004105E002D24FF0010101E0CF
:100400006FF0010103EBC450284430BC00F0C6BAC1
:100410002DE9FE4F804681EA0300C00F0C46009094
:1004200021F0004123F00045B8EB0200A94105D2BC
:100430004046214690461C460B46024623F00040AB
:10044000104347D0270DC7F30A00C3F30A510290A7
:10045000401A019040286BDAC3F3130040F4801B6C
:100460000098924620B10023D2EB030A63EB0B0BFA
:1004700001985946C0F14002504600F05EFA064627
:100480000D4650465946019A00F076FA10EB0800E6
:100490006141002487EA115284EAE7731A4340D08D
:1004A000009A62B3019A012A4FEA075215DC001B39
:1004B00061EB02014FF0004202EA0752CDE900422F
:1004C000001C41F5801132462B4600F0ADFA03B016
:1004D000BDE8F08F40462146F9E7001B61EB0201C1
:1004E000001C41F5801300185B412018A2F500178D
:1004F00047EB030140EAD570B6196D4111E06D0874
:100500004FEA360645EAC0754FEA0752001B61EB19
:100510000201001C41F5801149084FEA3000001922
:10052000514132462B4603B0BDE8F04F00F06DBAA2
:100530000098012240000023D0EB020263EBE0733D
:10054000009821464FEAE074B8EB000061EB04012B
:10055000E9E783F000435BE781F0004158E72DE9CC
:10056000FE4F81EA030404F0004421F000410094AE
:100570004FF0000B23F0004350EA01045ED052EA32
:1005800003045BD0C3F30A54C1F30A552C44A4F20C
:10059000F3340194A0FB0254C1F3130141F4801120
:1005A000C3F3130343F4801301FB024400FB034E27
:1005B000840A970A44EA815447EA8357A4FB0768F0
:1005C00002958D0A05FB07854FEA932C04FB0C541A
:1005D0002705029D4FEA065847EA1637B5EB08058E
:1005E0006EEB070C870E920E47EA811742EA8312E0
:1005F000A7FB0201B6EB0B0164EB00042B0D43EAF1
:100600000C335E1844EB1C50DA465146E7FB0201FE
:10061000C5F313044FEA0B3343EA14534FEA043291
:10062000019C43EA0603A4F10C040294009CCDE96A
:1006300000B400F0F9F903B0BDE8F08F00200146E6
:10064000F9E72DE9F04D81EA030404F0004B21F0B5
:10065000004514464FF0000A23F0004150EA05021D
:1006600020D054EA01021DD0C5F30A570246C5F353
:100670001303C1F31300C1F30A5640F4801543F489
:100680008013A7EB0608101BD64608F2FD3873EB63
:10069000050002D308F1010801E092185B41B8F1AE
:1006A000000F03DA00200146BDE8F08D00204FF472
:1006B0008011064684460EE0171B73EB050705D331
:1006C000121B63EB050306434CEA010C49084FEA91
:1006D000300092185B4150EA0107EDD152EA030065
:1006E00012D082EA040083EA0501084305D0101BFA
:1006F000AB4106D20122002306E000224FF0004366
:1007000002E06FF0010253101AEB06004CEB0851A7
:1007100010EB0A0041EB0B01BDE8F04D00F075B99C
:10072000C10F80EAE0700844CA079623002100F058
:100730003EB996230022114600F039B90EB5C10F1B
:1007400080EAE0700844CA07002140F233438DE894
:100750000E000A460B4600F067F903B000BD00F03A
:10076000004220F00040C10DC0F3160040F400002C
:100770007F2901DA00207047962903DCC1F1960138
:10078000C84001E096398840002AF4D040427047C2
:1007900020F00040C10DC0F3160040F400007F2996
:1007A00001DA00207047962903DCC1F19601C840A8
:1007B000704796398840704770B5C1F30A5201F00E
:1007C00000450024C1F3130140F2FF3341F48011CE
:1007D0009A4201DA002070BD40F233439A42A2F2FD
:1007E000334203DC524200F0B7F800E090402C4363
:1007F000F1D0404270BD00F0004230F000400AD01D
:10080000C10D01F56071C0F3160042EA0151C20842
:1008100040071143704700200146704730B5041E61
:1008200071F1000404DB4FF00044404264EB01012D
:10083000141E73F1000405DB1C464FF000435242C6
:1008400063EB0403994208BF904230BD01F00043BE
:1008500030B421F0004150EA010206D00A0DA2F5A1
:100860006072C1F31301002A02DC30BC0020704723
:10087000440F44EAC104C100E01830BC00EBC25090
:1008800000F08CB8002801DBC0F10040002901DB3A
:10089000C1F1004181427047002801DBC0F10040F6
:1008A000002901DBC1F100418842704730B50B4699
:1008B000014600202022012409E021FA02F59D4290
:1008C00005D303FA02F5491B04FA02F52844151E64
:1008D000A2F10102F1DC30BD2DE9F05F05460020F8
:1008E00092469B4688460646814640241BE02846A1
:1008F00041464746224600F02FF853465A46C01A52
:10090000914110D311461846224600F016F82D1AD0
:1009100067EB01084F4622460120002100F00DF848
:1009200017EB00094E41201EA4F10104DFDC48460C
:1009300031462A464346BDE8F09F202A04DB203A90
:1009400000FA02F1002070479140C2F1200320FA22
:1009500003F3194390407047202A04DB203A21FA20
:1009600002F00021704721FA02F3D040C2F12002C8
:100970009140084319467047202A06DBCB17203ADE
:1009800041FA02F043EAE07306E041FA02F3D04094
:10099000C2F1200291400843194670470029A8BFC0
:1009A0007047401C490008BF20F00100704710B498
:1009B000B0FA80FC00FA0CF050EA010404BF10BC4D
:1009C000704749B1CCF1200421FA04F411FA0CF17A
:1009D00018BF012121430843A3EB0C01CB1D4FEAB3
:1009E00000614FEA102042BF002010BC704700EBAE
:1009F000C35010440029A4BF10BC7047401C4900DC
:100A000008BF20F0010010BC704710B5141E73F130
:100A1000000408DA401C41F1000192185B411A43BE
:100A200001D120F0010010BD2DE9F04D92469B460A
:100A300011B1B1FA81F202E0B0FA80F220329046B0
:100A4000FFF77BFF04460F4640EA0A0041EA0B012C
:100A500053465A46084313D0114653EA010019D0B1
:100A6000C8F140025046FFF777FF05460E46504654
:100A700059464246FFF761FF084305D0012004E0D4
:100A800020463946BDE8F08D0020054346EAE07671
:100A90002C4337430A986305E40AA0EB08000022C0
:100AA000FD0A44EA47540A3002D500200146E9E72E
:100AB000010510196941DDE9084500196941BDE8E2
:100AC000F04DA2E770B521F0004303430CD0C1F311
:100AD0000A550024D5EB040564EB0403D617AD1AC0
:100AE000B34102DB0020014670BD201841EB0251EA
:100AF00070BD2DE9F04D00231A461B1A8A4103DB15
:100B000000200146BDE8F08DC1F30A52C1F3130184
:100B100041F480154FF0000BD10702D100186D4150
:100B2000521E0027044640F2FF11384601EB620ACC
:100B30003E468046024600204FF48011FFF70CFF2E
:100B4000C2197141BB1846EB0100B4EB030C75EB05
:100B5000000C04D3E41A65EB000517460E46241971
:100B600008F101006D4180463428E3DDF91946EBB8
:100B70000600091BA84103D24FF0FF32134601E0E3
:100B8000002213461BEB070046EB0A51BDE8F04D6F
:100B9000FFF73BBFC1F30A52C1F3130140F2FF3329
:100BA00041F480119A4202DA00200146704740F277
:100BB00033439A42A2F2334202DC5242FFF7CCBEE8
:100BC000FFF7BBBE064C074D06E0E06840F00103AE
:100BD00094E8070098471034AC42F6D3FFF78AFA3E
:100BE000988C0008B88C000870B58C1810F8015B60
:100BF00015F0070301D110F8013B2A1106D110F8B6
:100C0000012B03E010F8016B01F8016B5B1EF9D1B9
:100C10002B0705D40023521E0DD401F8013BFAE73F
:100C200010F8013BCB1A921C03E013F8015B01F8AA
:100C3000015B521EF9D5A142D8D3002070BD21B16D
:100C4000826842F00102826003E0826822F00102C1
:100C50008260704710B504461248844208D10121D1
:100C6000401502F0F5F80021601502F0F1F817E0E8
:100C70000D48844208D10121001502F0E9F8002155
:100C8000201502F0E5F80BE00848844208D1012164
:100C9000C80302F0DDF800214FF4004002F0D8F85C
:100CA00010BD00000024014000280140003C01402C
:100CB000014600208A6802F004020AB1012000E027
:100CC000002070470146C86C80B270470246002081
:100CD00013680B400BB1012000E000207047014673
:100CE00000208A6802F008020AB1012000E000201A
:100CF0007047000030B502460020002350680F4CBA
:100D000020400D790C6844EA052420435060906827
:100D10000B4C2040D1E902542C434D7944EA450460
:100D200020439060D06A20F470000C7C641EE4B212
:100D3000234340EA0350D06230BD0000FFFEF0FFC5
:100D4000FDF7F1FFF0B504460D4600200021092D06
:100D500011DDE068A5F10A0606EB4607072606FA4C
:100D600007F18843A5F10A0606EB460603FA06F1E9
:100D70000843E0600CE0206905EB4507072606FA0A
:100D800007F1884305EB450603FA06F108432061A5
:100D9000072A0FDA606B561E06EB86071F2606FA37
:100DA00007F18843561E06EB860605FA06F108434E
:100DB000606322E00D2A0FDA206BD61F06EB860750
:100DC0001F2606FA07F18843D61F06EB860605FAAA
:100DD00006F10843206310E0E06AA2F10D0606EB7D
:100DE00086071F2606FA07F18843A2F10D0606EBD7
:100DF000860605FA06F10843E062F0BD816841F01D
:100E000008018160704721B1826842F4A0028260CB
:100E100003E0826822F4A00282607047816841F09A
:100E2000040181607047000000B587B001214FF4D4
:100E3000017001F0FDFF4FF4004001F0CDFF0220F2
:100E4000ADF8040000208DF8070001A9174800F054
:100E5000C3FA1748FFF7FEFE002002908DF80C0041
:100E60008DF80D004FF460200490002005900120C3
:100E70008DF8180002A90E48FFF73CFF01210C482D
:100E8000FFF7DDFE0A48FFF7B9FF00BF0848FFF78C
:100E900026FF0028FAD10648FFF7C0FF00BF04482C
:100EA000FFF706FF0028FAD107B000BD0008014097
:100EB0000024014008B50121082001F0B9FF0120FC
:100EC000ADF8000010208DF8030003208DF802001B
:100ED0006946044800F080FA0121024800F010FB46
:100EE00008BD0000000C014000BFFEE770B50546DC
:100EF000832412480088044344F4004435B1012D92
:100F000007D0022D08D0032D0CD108E044F4804412
:100F100008E044F4A04405E044F4C04402E044F492
:100F2000E04400BF00BF22460121902006F0EAFB0A
:100F300008B1012070BD0020FCE70000780100200E
:100F400021B1026842F00102026004E002684FF63B
:100F5000FE731A400260704701684FF6FE7211403E
:100F600001600021016041608160C1604B4988429D
:100F700008D14A490839496841F00F01474A083AFF
:100F800051608AE045491431884208D14349083903
:100F9000496841F0F001414A083A51607DE03F491B
:100FA0002831884208D13D490839496841F47061C7
:100FB0003A4A083A516070E038493C31884208D1D9
:100FC00036490839496841F47041344A083A516059
:100FD00063E032495031884208D1304908394968C4
:100FE00041F470212D4A083A516056E02B49643192
:100FF000884208D129490839496841F47001274AD3
:10100000083A516049E025497831884208D123499E
:101010000839496841F07061204A083A51603CE063
:101020001F49884206D1011F096841F00F01021FC4
:10103000116032E01A491431884208D11849091F59
:10104000096841F0F001164A121F116025E01449A9
:101050002831884208D11249091F096841F470619A
:101060000F4A121F116018E00D493C31884208D127
:101070000B49091F096841F47041094A121F1160A8
:101080000BE007495031884207D10549091F09681B
:1010900041F47021024A121F11607047080002409B
:1010A0000804024010B50022026847F6F0739A4324
:1010B0000C6A8B6823430C6923434C6923438C6976
:1010C0002343CC6923434C6A23438C6A23431A434A
:1010D0000260CB6843600B6883604B68C36010BDDF
:1010E000416070477047000010B580210348FFF74A
:1010F00063F800200249088010BD0000340A002077
:10110000BA01002070B50546002400BF00F04AF97E
:1011100080B90DA10E48FFF766F8044654B13A2194
:101120002046FFF772F8044614B1641C204670BDD7
:101130000020FCE7052003F0B7FA281EA5F1010105
:101140008DB2E3D100BFF2E74950442C000000000B
:10115000340A002008B50121082001F069FE1020A2
:101160008DF803000220ADF8000003208DF8020086
:101170006946324800F030F9002202212F4800F081
:10118000C3F9FA2003F090FA012202212B4800F063
:10119000BBF94FF4FA7003F087FAFFF7A5FF28A018
:1011A00002F072FB03E04FF4FA7003F07DFA642260
:1011B00025A126A000F0ACF80028F4D125A002F06B
:1011C00063FB03E04FF4FA7003F06EFA64221EA191
:1011D00023A000F09DF80028F4D125A002F054FBD4
:1011E00003E04FF4FA7003F05FFAC82216A123A0BF
:1011F00000F08EF80028F4D124A002F045FB03E0B3
:101200004FF4FA7003F050FAC82222A123A000F094
:101210007FF80028F4D129A002F036FB03E04FF458
:10122000FA7003F041FAC82227A129A000F070F853
:101230000028F4D131A002F027FB08BD000C0140CA
:1012400041540D0A000000004F4B000041540D0AAC
:101250000D00000043574D4F44450D0A00000000AB
:1012600041542B43574D4F44453D310D0A0000007A
:1012700041542B4357444843500D0A0041542B43DB
:1012800057444843503D312C310D0A0043574A41E1
:10129000500D0A00474F54204950000041542B4341
:1012A000574A41503D224F4E544E4554222C226CF9
:1012B0007979637A31333134220D0A00434950532E
:1012C000544152540D0A0000434F4E4E45435400C2
:1012D00041542B43495053544152543D225443509E
:1012E000222C223138332E3233302E34302E333903
:1012F000222C363030320D0A0000000045535038A1
:1013000032363620496E6974204F4B0D0A000000BA
:101310002DE9F04105460E4614462846FEF77FFFAC
:1013200087B23946284602F08FFA0FE000F03AF80B
:1013300048B931460948FEF756FF20B1FFF7D4FE01
:101340000020BDE8F0810A2003F0AEF9201EA4F1D0
:1013500001018CB2EAD10120F3E70000340A002039
:1013600030B589B005460C46FFF7BEFE224608A1FF
:1013700001A802F099FAC82209A101A8FFF7C8FF45
:1013800018B92146284602F05FFA09B030BD0000C6
:1013900041542B43495053454E443D25640D0A00AA
:1013A0003E0000000A48008808B90120704708483C
:1013B000008808490988884203D100200449088030
:1013C000F4E703480088034908800120EEE70000A5
:1013D000BA010020BC0100202DE9F04102460025A1
:1013E0000026002000230024002791F803C00CF001
:1013F0000F0591F803C00CF0100CBCF1000F03D0E6
:1014000091F802C04CEA050591F800C0BCF1000F4C
:1014100031D0146800202BE04FF0010C0CFA00F3DF
:10142000B1F800C00CEA03069E4220D183004FF0C1
:101430000F0C0CFA03F7BC4305FA03FC4CEA040456
:1014400091F803C0BCF1280F06D14FF0010C0CFA43
:1014500000FCC2F814C00AE091F803C0BCF1480FC8
:1014600005D14FF0010C0CFA00FCC2F810C0401C72
:101470000828D1D31460B1F800C0BCF1FF0F34DDEF
:10148000546800202EE000F1080C4FF0010808FA23
:101490000CF3B1F800C00CEA03069E4221D1830090
:1014A0004FF00F0C0CFA03F7BC4305FA03FC4CEAAF
:1014B000040491F803C0BCF1280F05D100F1080C19
:1014C00008FA0CF8C2F8148091F803C0BCF1480F78
:1014D00007D100F1080C4FF0010808FA0CF8C2F827
:1014E0001080401C0828CED35460BDE8F08102462D
:1014F000002093680B400BB1012000E000207047F2
:1015000041617047016170470AB1016100E04161CA
:101510007047000010B50021902001F044FC10B18C
:1015200002A002F0B1F905F099FF10BD696E69746F
:1015300020506F696E7452656769737465722065B7
:1015400072726F720D0A000010B504460723012263
:1015500021460948FFF7F6FB01210748FFF753FC36
:1015600000BF02210448FFF7B1FB0028F9D0024870
:10157000FFF7A8FB10BD0000002401402DE9F04159
:1015800007460C460025002608E03846FFF7DCFF3A
:101590000544052003F088F8701CC6B2A642F4DBAF
:1015A000B5FBF4F080B2BDE8F08100BFFEE710B5F6
:1015B00003F058F84FF4407001F048F84FF4E13070
:1015C00002F09CF806F01AF84FF4E13002F0E6F869
:1015D00000F02CFA01F0ACF8FFF76CFC00F092FB85
:1015E00003F01AF8FFF720FC01F098FE10BD70B56B
:1015F00002460024002500230020958A138B1B043B
:1016000045EA030626F07F4404EA01068E4201D132
:10161000012000E0002070BD21B1028842F00102EB
:10162000028004E002884FF6FE731A400280704781
:1016300000B585B00121480501F0EAFB0121082031
:1016400001F0F6FB4020ADF8000003208DF8020009
:101650001C208DF8030069461348FFF7BDFE80206B
:10166000ADF8000069461048FFF7B6FE0020ADF85F
:1016700008004BF6FF70ADF80A007820ADF80C00BA
:101680004FF48060ADF80E000001ADF8100007487F
:10169000019001A9064800F043F801210448FFF732
:1016A000BBFF05B000BD0000000C0140A08601009A
:1016B0000054004021B1028842F48072028004E0AC
:1016C00002884FF6FF631A400280704721B10288FA
:1016D00042F40072028004E002884FF6FF531A4081
:1016E000028070470CB5024600200023019300934E
:1016F00000920B0F019321F07F41019B1BB1009BD6
:101700001433009303E0090C009B18330093009BF3
:101710001B680B400BB1012000E000200CBD000055
:101720002DE9F04385B004460D460026B146042756
:10173000DFF8CC80A6884FF6C0700640684601F0FE
:1017400097FBDDF808802F48B8FBF0F01FFA80F90E
:1017500046EA0906A68020884FF6FE7108402080E0
:1017600000262949286888420CD828684000B8FB20
:10177000F0F087B2042F00DA04273E4309F101009C
:10178000208427E0E8884BF6FF71884206D128685C
:1017900000EB4000B8FBF0F087B209E0286800EBEE
:1017A000C00101EB0010B8FBF0F087B247F48047AE
:1017B000C7F30B0008B947F0010747F400400643A0
:1017C0004FF4967009FB00F04FF47A7190FBF1F042
:1017D000401C2084A683208840F0010020802688B9
:1017E0004FF6F5300640A8886989084306432680ED
:1017F000A88929890843208105B0BDE8F08300004D
:1018000000127A0040420F00A086010012B141F0A0
:10181000010102E04FF6FE73194001827047018218
:101820007047000070B504460D4600BF4FF400310C
:101830001C48FFF757FF0028F8D101211948FFF78E
:1018400039FF00BF18491748FFF7D1FE0028F9D02B
:10185000002278211348FFF7D9FF00BF1349114830
:10186000FFF7C5FE0028F9D021460E48FFF7D7FF45
:1018700000BF0E49891C0B48FFF7B9FE0028F8D0BD
:1018800029460848FFF7CBFF00BF0849891C0548D7
:10189000FFF7ADFE0028F8D001210248FFF716FF40
:1018A00070BD0000005400400100030082000700EA
:1018B0002DE9F84F054600242D4F7E4213E055F8E0
:1018C0002400B84202DD55F8240000E038460746FF
:1018D00055F82400B04202DA55F8240000E0304602
:1018E0000646601CC4B2802CE9DBB81BFEF718FF6B
:1018F000804641461F48FEF74DFD1F4908604FF4E2
:1019000060711E48FEF758FC00242BE0611C55F85E
:101910002110881BFEF704FF8346174801685846CC
:10192000FEF706FD8246FEF733FF00F0FF0855F88C
:101930002410881BFEF7F4FE83460F4801685846C2
:10194000FEF7F6FC8246FEF723FF00F0FF090120B8
:101950000090601CC2B243464946204600F010F891
:10196000601CC4B27F2CD1DB00F058FFBDE8F88FBB
:10197000C0B4B3FF00006042740100208F04002057
:101980002DE9FF4F84B081468A46002002908346AD
:101990000698A0EB09050798A0EB0A06CDF804907D
:1019A000CDF800A0002D01DD012705E00DB90027CD
:1019B00002E04FF0FF376D42002E02DD4FF00108CC
:1019C00006E016B94FF0000802E04FF0FF3876420B
:1019D000B54201DD2C4600E03446002003901EE0B5
:1019E000009AD1B2019AD0B2119A00F067FE029823
:1019F00028440290B3440298A04205DD0298001BDF
:101A00000290019838440190A34504DDABEB040B30
:101A10000098404400900398401C80B20390611CE1
:101A200003988842DCDD08B0BDE8F08F08B50121DD
:101A3000042001F0FDF90121102001F0F9F94FF423
:101A40008070ADF8000010208DF8030003208DF8A1
:101A5000020069461648FFF7BFFC4FF40060ADF87E
:101A6000000010208DF8030003208DF80200694665
:101A70000F48FFF7B1FC4FF40050ADF80000102004
:101A80008DF8030003208DF8020069460948FFF72E
:101A9000A3FC0020084908604FF480710448FFF758
:101AA0002FFD4FF400610248FFF72AFD08BD00003A
:101AB0000008014000100140B40122422DE9FC4120
:101AC00004460D4616466B4606223B21682000F070
:101AD0007BF90746BFB99DF801009DF8001040EA68
:101AE000012000B220809DF803009DF8021040EA1A
:101AF000012000B228809DF805009DF8041040EAFE
:101B0000012000B230803846BDE8FC8110B50020CD
:101B10000949086000F0A2F900200849C1F8A401B1
:101B200000F00EF801200449086000F009F80020D8
:101B30000249C1F8A00110BDA081214200802142CC
:101B40007047000008B50121082001F071F94FF439
:101B50004070ADF8000010208DF8030003208DF8D0
:101B6000020069460448FFF737FC0120034908607A
:101B70000349C1F8A40108BD000C0140A081214225
:101B80000080214210B500200949086000F066F984
:101B900001200849C1F8A401FFF7D2FF0120044940
:101BA0000860FFF7CDFF00200249C1F8A00110BD79
:101BB000A08121420080214270B50546002400F03A
:101BC0003DF9002614E000200E490860FFF7B8FF39
:101BD00001200D49C1F8A0016006040E09487C38B7
:101BE000006808B1601CC4B2FFF7AAFF701CC6B23F
:101BF000082EE8DB15B9FFF7C5FF01E0FFF786FF08
:101C0000204670BDA08121420080214270B504466B
:101C100000F024F900200D490860002512E0E009D9
:101C20000A49091D08606006040E01200849C1F830
:101C3000A001FFF785FF002004490860FFF780FF3F
:101C4000681CC5B2082DEADB70BD0000A0812142EE
:101C50000080214210B500F001F901200849086018
:101C60000849C1F8A001FFF76BFF00200449086094
:101C7000FFF766FF00200349C1F8A00110BD000076
:101C8000A48121420080214210B500F0E7F8002035
:101C9000074908600749C1F8A401FFF751FF012077
:101CA000034908600349C1F8A401FFF749FF10BDCB
:101CB000A08121420080214210B5002400F0BEF82E
:101CC00001200E490860FFF73BFF01200C49C1F8D5
:101CD000A001FFF735FF07E0601CC4B2FA2C03DD5A
:101CE000FFF7D2FF012010BD0448803800680028AB
:101CF000F2D10249091F086000BFF4E7A481214224
:101D00000080214210B50121084601F091F801211F
:101D1000042001F08DF8FFF715FF80216B2000F003
:101D2000F9F8642002F0C0FC00216B2000F0F2F80A
:101D3000032000F0ADF8002000F0A2F8322000F0FF
:101D4000CCF80021382000F0E5F800216A2000F0EE
:101D5000E1F80021232000F0DDF88021372000F099
:101D6000D9F8752000F013F80446682C0BD1012136
:101D70006B2000F0CFF800216C2000F0CBF832206F
:101D800000F0ABF801E0012010BD0020FCE770B5C9
:101D90000446FFF75FFFD020FFF738FFFFF78CFF07
:101DA0002046FFF733FFFFF787FFFFF753FFD120F0
:101DB000FFF72CFFFFF780FF0020FFF7FDFE054631
:101DC000FFF762FF284670BD2DE9F04106460F4639
:101DD00014461D46FFF73EFF002141EA4601C8B206
:101DE000FFF714FFFFF768FF20B1FFF74DFF012059
:101DF000BDE8F0813846FFF709FFFFF75DFFFFF709
:101E000029FF012101EB4601C8B2FFF7FFFEFFF7F2
:101E100053FF0DE0012C04D10020FFF7CDFE287008
:101E200003E00120FFF7C8FE2870601EC4B26D1CDD
:101E3000002CEFD1FFF728FF0020D9E708B54FF4B9
:101E40000070ADF8000004208DF8030069460248D8
:101E5000FFF7C2FA08BD0000000C014008B54FF4BE
:101E60000070ADF8000010208DF8030003208DF8FD
:101E7000020069460148FFF7AFFA08BD000C0140B7
:101E800010B50446E006010E1C2000F043F810BD1A
:101E900010B50446E006010E1B2000F03BF810BD13
:101EA00070B504460025BC2C01DB012510E0622C36
:101EB00001DB02250CE02A2C01DB032508E0142CB1
:101EC00001DB042504E00A2C01DB052500E00625E2
:101ED00029461A2000F01EF870BD70B50446B4F50E
:101EE0007A7F01DD4FF47A74042C00DA04244FF475
:101EF0007A7090FBF4F0401EC5B22946192000F01C
:101F000009F80546264604EBD671C1F34F00FFF7EA
:101F1000C7FF70BD70B505460C46FFF79BFED0208D
:101F2000FFF774FEFFF7C8FE18B1FFF7ADFE012002
:101F300070BD2846FFF76AFEFFF7BEFE2046FFF79A
:101F400065FEFFF7B9FE18B1FFF79EFE0120EFE72F
:101F5000FFF79AFE0020EBE72DE9F04105460E461B
:101F600017469846FFF776FE002141EA4501C8B2C0
:101F7000FFF74CFEFFF7A0FE20B1FFF785FE012022
:101F8000BDE8F0813046FFF741FEFFF795FE0024E3
:101F90000CE018F80400FFF739FEFFF78DFE18B1CA
:101FA000FFF772FE0120EBE7601CC4B2BC42F0DB1D
:101FB000FFF76AFE0020E3E710B50446207B012806
:101FC00002D1206803F00AF9002020606060A06060
:101FD000207310BD0246002301230DE002F07F00B4
:101FE0000870D2092AB1087840F080000870491CB6
:101FF00001E0184670475B1C042BEFDD4FF0FF300B
:10200000F8E770B504460E460025206898B901200F
:102010002073304603F046FD20602068E0B10020C8
:102020006060A66003E00020216848556D1CA06830
:10203000A842F8D810E00220207303E000202168B5
:1020400048556D1CA068A842F8D800206060A068C0
:10205000B04201D20020206070BD00002DE9FF4F8A
:1020600083B082468B469146159C00250020029045
:102070000F2701904846FEF7D2F80FFA80F8B9F121
:10208000000F03D1012007B0BDE8F08F08F1020076
:10209000384487B2109808B145F00205129878B11B
:1020A00045F004051298FEF7BAF8C0B202901398F2
:1020B000FEF7B5F801460298001D0844384487B27F
:1020C000119820B1012804D0022808D104E000BFF3
:1020D00007E045F00C0504E045F0140501E002209E
:1020E000D1E700BF149808B145F02405BAF1000FFC
:1020F00002D0BBF1000F01D10320C4E745F0C005B9
:102100005046FEF78CF806465846FEF788F83044ED
:10211000001D384487B239462046FFF772FF206819
:1021200008B90420AFE739462068FEF745F81021CA
:102130006268501C606020688154D4E90023D11883
:10214000781FFFF747FF00B201900198002804DADA
:102150002046FFF731FF052095E7616801980844A4
:10216000606000216268501C606020688154042116
:102170006268501C6060206881544D216268501C68
:1021800060602068815451216268501C6060206842
:10219000815454216268501C6060206881546268D8
:1021A000501C60602068815404216268501C60608B
:1021B000206881546168481C606020684554069816
:1021C000010A6268501C6060206881540698C1B2A0
:1021D0006268501C606020688154C8F307216268FF
:1021E000501C6060206881546268501C60602068E8
:1021F00000F80280D4E90012881842464946FEF7EA
:1022000022F860684044606005F00400B8B300261E
:10221000139808B938A013901298FEF700F886B208
:10222000310A6268501C6060206881546268501CEA
:10223000606020688654D4E90012881832461299EA
:10224000FEF701F86068304460601398FDF7E7FF1F
:1022500086B2310A6268501C6060206881546268EE
:10226000501C606020688654D4E9001288183246F9
:102270001399FDF7E8FF60683044606000BF05F027
:102280008000C8B15046FDF7CAFF86B2310A6268C5
:10229000501C6060206881546268501C6060206837
:1022A0008654D4E90012881832465146FDF7CBFF18
:1022B00060683044606000BF05F04000C8B1584617
:1022C000FDF7ADFF86B2310A6268501C606020687D
:1022D00081546268501C606020688654D4E9001202
:1022E000881832465946FDF7AEFF6068304460609A
:1022F00000BF0020C7E60000000000002DE9FF4FEE
:1023000083B0834690469946139C00260025002002
:10231000029001900027BBF1000F03D1012007B00C
:10232000BDE8F08F00250AE00498405D232803D023
:102330000498405D2B2801D10220F0E76D1C049821
:10234000405D0028F0D147F03007119808B147F000
:10235000010705EB0900861C109820B1012804D064
:1023600002280AD105E000BF09E047F00207B61CC9
:1023700005E047F00407B61C01E00320CFE700BFEB
:1023800098F80000022822D14FF0000A00BF504602
:102390000AF1010A18F800007D28F8D1AAF1030A11
:1023A0000AF1070002900298A9EB000AF01CA0EBCA
:1023B0000A012046FFF725FE206808B90420AEE791
:1023C000F21CA2EB0A012068FDF7F6FE0BE0F11CFF
:1023D0002046FFF716FE206808B904209FE7F11C8D
:1023E0002068FDF7E9FE6168481C6060206847547A
:1023F000D4E9000281183046FFF7ECFD0190019806
:10240000002804DA2046FFF7D7FD052087E761683A
:10241000019808446060C5F307216268501C606041
:10242000206881546268501C606020688554D4E93B
:10243000001288182A460499FDF705FF60682844B1
:102440006060109860B14FEA1B216268501C6060A8
:10245000206881546268501C6060206800F802B0F7
:10246000B8F1000F19D098F8000002280BD1D4E978
:10247000001288184146029AFDF785FE61680298AD
:102480000844606009E0D4E9001288184A464146D1
:10249000FDF779FE60684844606000203FE7000077
:1024A0002DE9FF4107460D4690461E460A9C012035
:1024B0000021CDE90001EB1C0A460FA1CDE9020481
:1024C0000A20FFF71BFF88B96168481C606020681C
:1024D0004654C5F307216268501C6060206881542F
:1024E0006268501C60602068855403E0012004B0DD
:1024F000BDE8F0810020FAE724647000F0B50446DE
:102500000D462646012300201060002114E0775C70
:1025100007F07F07106807FB03001060705C00F095
:10252000800008B9481CF0BDDB01B3F5001F02D3E1
:102530006FF00100F7E7491CA942E8DB4FF0FF30DC
:10254000F1E701464878022801D0012070478878D9
:1025500010B18878012801D1C878F7E7FF20F5E7A6
:10256000F8B50446FF2720780511012D01DB0E2D5B
:1025700001DD3846F8BD032D24D1002000906A46C5
:102580000421601CFFF7BAFF2044461C0098022873
:1025900003D3207800F0010008B1FF20EAE770784B
:1025A000317840EA0120801C0099884201D9FF203F
:1025B000E0E706A1B01CFDF716FE08B10F2700E00A
:1025C000032700E02F463846D4E7000024637265F5
:1025D0007100000000BFFEE77047000070B50021E9
:1025E00000230F22C47804B3154C246804F4E0647B
:1025F000C4F5E064210AC1F10403CA40447804FA36
:1026000003F184781440214309010E4C0678A1554A
:10261000047804F01F050124AC4005786D11AD006D
:1026200005F1E025C5F8004109E0047804F01F0534
:102630000124AC40044D0678761145F8264070BD63
:102640000CED00E000E400E080E100E0024901431D
:10265000024A1160704700000000FA050CED00E02E
:1026600010B5FEF777FD03E04FF4FA7002F01CF8A6
:1026700000F0BEF90028F7D110BD70B5002419E0B4
:1026800004F1B001C8B2002100F09EF9002102203F
:1026900000F09AF90021102000F096F9002505E0DD
:1026A0000121002000F090F9681CC5B2802DF7DBF5
:1026B000601CC4B2082CE3DB70BD0000F0B514460A
:1026C00000257F2801DC372900DDF0BD0B46CF1740
:1026D00001EB5777FF10C7F10607FAB2CF1701EBEE
:1026E0005777FF10A1EBC707FEB2C6F1070701231A
:1026F000BB40DDB264B1C0EBC0030C4F3B449B5CFC
:102700002B43C0EBC007DFF824C06744BB540BE089
:10271000C0EBC003054F3B449B5CAB43C0EBC00721
:10272000DFF808C06744BB5400BFCEE78F04002029
:1027300010B5FEF77DFF4FF4FA7001F0B5FF0021F0
:10274000AE2000F041F90021022000F03DF9002107
:10275000102000F039F90021402000F035F9002167
:10276000B02000F031F90021812000F02DF9002186
:10277000FF2000F029F90021A12000F025F9002117
:10278000A62000F021F90021A82000F01DF9002169
:102790003F2000F019F90021C82000F015F90021B0
:1027A000D32000F011F90021084600F00DF90021B6
:1027B000D52000F009F90021802000F005F9002162
:1027C000D82000F001F90021052000F0FDF80021DB
:1027D000D92000F0F9F80021F12000F0F5F80021EF
:1027E000DA2000F0F1F80021122000F0EDF80021CD
:1027F000DB2000F0E9F80021302000F0E5F80021AE
:102800008D2000F0E1F80021142000F0DDF8002117
:10281000AF2000F0D9F8FFF730FF10BD70B50024ED
:102820001DE004F1B001C8B2002100F0CDF8002194
:10283000022000F0C9F80021102000F0C5F80025A2
:1028400009E0C5EBC501074A1144085D012100F00C
:10285000BBF8681CC5B2802DF3DB601CC4B2072C2A
:10286000DFDB70BD8F04002070B504460D4605F116
:10287000B001C8B2002100F0A7F8102141EA1410FD
:10288000002100F0A1F804F00F00002100F09CF8F6
:1028900070BD00002DE9F04707460E469046994668
:1028A00000250024A8F12000C5B27F2F02DD0027FB
:1028B000B01CC6B2B9F1100F24D131463846FFF72B
:1028C000D3FF002408E004EB0511194A505C0121F4
:1028D00000F07AF8601CC4B2082CF4DB701CC1B2A2
:1028E0003846FFF7C1FF002409E004EB0511083169
:1028F0000F4A505C012100F067F8601CC4B2082C3C
:10290000F3DB12E031463846FFF7AEFF00240AE061
:1029100005EB4501074A02EB4101085D012100F08A
:1029200053F8601CC4B2062CF2DBBDE8F08700004F
:1029300080790008587700082DE9F04104460F46D9
:102940001546984600260FE0AA5D434639462046C4
:10295000FFF7A0FF04F10800C4B2782C02DD0024C8
:10296000B81CC7B2701CC6B2A85D0028ECD1BDE887
:10297000F08100002DE9F04180460E461746002404
:102980007D0131464046FFF76FFF00BF06E00D496D
:10299000485D00F071FF6D1C601CC4B2102CF6DBAA
:1029A000701CC1B24046FFF75FFF002406E00549F6
:1029B000485D00F061FF6D1C601CC4B2102CF6DB9A
:1029C000BDE8F0817400002070B504460D4615B1D5
:1029D000012D0AD104E021460020FEF723FF04E088
:1029E00021464020FEF71EFF00BF00BF70BD000063
:1029F00030B58BB000200790089009900A9001250F
:102A00002BA32EA22FA131A000F03EFF07A800218A
:102A100002910391CDE9041000912B0224A20191AF
:102A200026A128A0FFF71AFB00283BD1089A91B2F3
:102A30000798FEF795FCFA20FEF764FB0446002C8D
:102A40002CD02046FFF78CFD022827D12046FFF727
:102A500078FD06281DD2DFE800F003080C101418DA
:102A600026A000F011FF002517E029A000F00CFFC0
:102A700013E02EA000F008FF0FE035A000F004FFE7
:102A80000BE03BA000F000FF07E042A000F0FCFEDE
:102A900003E04BA000F0F8FE00BF00BF07A8FFF75F
:102AA0008BFA02E04DA000F0EFFE28460BB030BDDF
:102AB0003730363434313131350000003938373968
:102AC0003837000034313536303900004F6E654EEE
:102AD00065745F4465764C696E6B0D0A50524F49C0
:102AE000443A2025732C09415549463A2025732C38
:102AF0000944455649443A25730D0A0054697073D8
:102B00003A09C1ACBDD3B3C9B9A60D0A0000000093
:102B10005741524E3A09C1ACBDD3CAA7B0DCA3BAE3
:102B2000D0ADD2E9B4EDCEF30D0A00005741524EBC
:102B30003A09C1ACBDD3CAA7B0DCA3BAB7C7B7A81E
:102B4000B5C4636C69656E7469640D0A00000000A9
:102B50005741524E3A09C1ACBDD3CAA7B0DCA3BAA3
:102B6000B7FECEF1C6F7CAA7B0DC0D0A0000000020
:102B70005741524E3A09C1ACBDD3CAA7B0DCA3BA83
:102B8000D3C3BBA7C3FBBBF2C3DCC2EBB4EDCEF334
:102B90000D0A00005741524E3A09C1ACBDD3CAA735
:102BA000B0DCA3BAB7C7B7A8C1B4BDD328B1C8C8F1
:102BB000E7746F6B656EB7C7B7A8290D0A000000F0
:102BC0004552523A09C1ACBDD3CAA7B0DCA3BACEB4
:102BD000B4D6AAB4EDCEF30D0A0000005741524E10
:102BE0003A094D5154545F5061636B6574436F6E85
:102BF0006E656374204661696C65640D0A000000AF
:102C0000F0B589B00446202101A8FDF7D5FA28A126
:102C10002046FDF72CFB202101A8FDF7CDFA254920
:102C200025480068FDF72CFB0746FDF7E4FD054647
:102C30002A460B4621A101A800F036FE01A9204634
:102C4000FDF7C5FA202101A8FDF7B6FA204821A119
:102C5000026801A800F028FE01A92046FDF7B7FA96
:102C6000202101A8FDF7A8FA1E4802781EA101A89C
:102C700000F01AFE01A92046FDF7A9FA202101A8BB
:102C8000FDF79AFA1C480068FDF7B5FD05462A468F
:102C90000B461AA101A800F007FE01A92046FDF786
:102CA00096FA2046FDF7BBFAC0B209B0F0BD0000AD
:102CB0002C3B0000CDCC4C3D1800002054656D70BD
:102CC000657261747572652C252E336C663B00004D
:102CD0001C000020486561727420726174652C25A7
:102CE000643B0000220000205468652046616C6C43
:102CF000732C25643B0000001400002054686520FC
:102D0000536D6F6B652C256C663B000030B5A5B02C
:102D100000202190229023902490002400258021DF
:102D200001A8FDF749FA01A8FFF76AFF0446002C45
:102D300020D021A805230022214600900EA0FFF7F5
:102D4000AFFBA0B908E001A8415D229A501C229077
:102D500021988154681C05B2A542F4DB229A91B2F5
:102D60002198FEF7FDFA21A8FFF726F902E005A059
:102D700000F08AFD25B030BD373036343431313182
:102D8000350000005741524E3A094544505F4E65A8
:102D900077427566666572204661696C65640D0AE6
:102DA00000000000704770B505460C4601F0C8FBF6
:102DB000284601F091FB01F003FC08B1012070BD31
:102DC000204601F089FB01F0FBFB08B10120F6E78A
:102DD00001F0D6FB0020F2E701460020034A5068CC
:102DE00020F440400843506070470000001002404B
:102DF00029B1064A52690243044B5A6104E0034A6E
:102E000052698243014B5A61704700000010024032
:102E100029B1064AD2690243044BDA6104E0034A4D
:102E2000D2698243014BDA61704700000010024012
:102E300029B1064A92690243044B9A6104E0034AAD
:102E400092698243014B9A61704700000010024072
:102E500029B1064AD2680243044BDA6004E0034A0F
:102E6000D2688243014BDA607047000000100240D4
:102E700030B500210022002400232D4D6D6805F09F
:102E80000C0121B1042905D0082923D105E0294DE1
:102E9000056022E0274D05601FE0254D6D6805F4B3
:102EA0007012234D6D6805F48034022505EB9242C3
:102EB0001CB9214D554305600BE01D4D6D6805F4AF
:102EC00000351DB11C4D5543056002E0194D5543B9
:102ED000056002E0174D056000BF00BF144D6D682E
:102EE00005F0F0010909154D6B5C0568DD40456092
:102EF0000F4D6D6805F4E061090A104D6B5C456883
:102F0000DD4085600A4D6D6805F46051C90A0B4DBE
:102F10006B5C4568DD40C560054D6D6805F440415A
:102F2000890B074D6B5CC568B5FBF3F5056130BDDA
:102F30000010024000127A0000093D005E000020EF
:102F40006E000020704710B500F002F810BD0000C0
:102F50000CB50020019000903348006840F48030A8
:102F60003149086000BF3048006800F4003000902C
:102F70000198401C0190009818B90198B0F5A06F15
:102F8000F1D12948006800F4003010B10120009010
:102F900001E0002000900098012843D123480068F8
:102FA00040F01000214908600846006820F0030046
:102FB00008600846006840F0020008601A4840684F
:102FC000194948600846406848600846406840F42F
:102FD000806048600846406820F47C1048600846DD
:102FE000406840F4E81048600846006840F080708F
:102FF000086000BF0C48006800F000700028F9D09D
:103000000948406820F003000749486008464068C6
:1030100040F00200486000BF0348406800F00C0028
:103020000828F9D10CBD0000001002400020024029
:10303000042808D14FF0E021096941F004014FF064
:10304000E022116107E04FF0E021096921F004015D
:103050004FF0E022116170477047000010B513482F
:10306000006840F0010011490860084640681049B6
:1030700008400E494860084600680E4908400B4960
:1030800008600846006820F4802008600846406810
:1030900020F4FE0048604FF41F008860FFF753FFE4
:1030A0004FF000600449086010BD000000100240AD
:1030B0000000FFF8FFFFF6FE08ED00E010B501216B
:1030C000054800F08EF830B10121034800F07AF88D
:1030D00001200249087010BD0004004020000020BB
:1030E0002DE9F04186B00121264800F07AF8002849
:1030F00044D00121234800F065F80A210120FEF7A1
:103100003DFA2149088008460088FDF712FB8046F9
:10311000FDF771FB06464FF066321C4BFDF71FFAB8
:103120000446FDF793FB1A49086008460068FDF75E
:1031300062FB04460D46174917480068FDF7A0F8E2
:103140008046FDF758FB064614480078CDE900613B
:10315000CDE9024504901248027912A1164800F008
:10316000A3FB0B480068FDF746FB04460022134B07
:10317000FDF754FB02D801201149086006B0BDE8F4
:10318000F0810000000800401000002066664A3F01
:1031900014000020CDCC4C3D18000020220000205F
:1031A0007B010020256420252E316620252E326CDF
:1031B0006620256400000000B30300200000E83F03
:1031C00080812142CA430282704721B1028842F0C5
:1031D0000102028004E002884FF6FE731A4002806A
:1031E000704730B50246002000230024158A05EA06
:1031F0000103958905EA010413B10CB1012000E037
:10320000002030BD1AB183890B43838102E083899A
:103210008B43838170470000002202881D4B984237
:103220000ED01D4B98420BD0B0F1804F08D01B4BF5
:10323000984205D01A4B984202D01A4B984204D1BA
:103240004FF68F731A404B881A43174B984207D09A
:10325000164B984204D04FF6FF431A40CB881A43CE
:1032600002808B8883850B8803850A4B98420BD09C
:10327000094B984208D00E4B984205D00D4B98420E
:1032800002D00D4B984201D10B7A03860123838231
:1032900070470000002C0140003401400004004051
:1032A00000080040000C00400010004000140040E6
:1032B0000040014000440140004801401FB5012189
:1032C0000220FFF7A5FD4EF65F20ADF8080040F2A2
:1032D000CF20ADF804000020ADF80A00ADF80600DC
:1032E00001A90D48FFF798FF012211460A48FFF790
:1032F00089FF1D208DF8000000208DF801008DF859
:10330000020001208DF803006846FFF767F90121EC
:103310000148FFF75AFF1FBD000400401FB50121FF
:103320000420FFF775FD4EF65F20ADF8080040F26F
:10333000CF20ADF804000020ADF80A00ADF806007B
:1033400001A90D48FFF768FF012211460A48FFF75F
:1033500059FF1E208DF8000001208DF801008DF826
:1033600002008DF803006846FFF738F90121024892
:10337000FFF72BFF1FBD00000008004010B540F212
:1033800025511D4800F0F2F810B31B4800F0AAF9CF
:10339000C4B21A48008800F40040C8B91748008831
:1033A00000F4804060B10A2C03D00020134908804B
:1033B00020E01248008840F400401049088019E0DD
:1033C0000D2C06D10D48008840F480400B49088040
:1033D00010E00A480088C0F30D0009490C54074862
:1033E0000088401C0549088008460088C72801DD80
:1033F0000020088010BD0000003801405C00002063
:10340000C703002010B540F22441224800F0AEF876
:1034100000283DD000212048FDF792FD1D4800887E
:103420001C48001D00881D480078FF2823D11C4837
:103430001A49D1F801200260497901710020194927
:1034400008700FE0184917480078401C51F8201008
:103450001548144A127840F8221012480078401C8F
:10346000104908700F4800787F28EBDB0C48006893
:103470000D49C1F8FC0114210748FDF731FE012177
:103480000548FDF75DFD40F22441024800F03DF89B
:1034900010BD0000004400406C00024010080020F5
:1034A0007B010020800100202408002010B540F29C
:1034B00025510E4800F05AF8B0B10D480088802818
:1034C00002D300200A4908800848001D0088C1B2C4
:1034D000074802880088401C054B18800548815425
:1034E0002021024800F008F810BD0000004800400C
:1034F000BA010020340A002001F40072B2F5007F06
:1035000000D100BFCA430280704710B500220023DB
:1035100040F66A14A14200D100BF0A12012494406F
:10352000A3B2DC43048010BD21B1828942F4005271
:10353000828104E082894DF6FF731A4082817047D0
:103540001AB1838A0B43838202E0838A8B4383828E
:10355000704702460020B1F5007F00D100BF1388FC
:103560000B400BB1012000E00020704770B502460F
:10357000002400230025002040F66A16B14200D145
:1035800000BFC1F3421501F01F03012606FA03F341
:10359000012D02D19689334006E0022D02D1168A10
:1035A000334001E0968A33400C12012606FA04F4F7
:1035B0001688344013B10CB1012000E0002070BD2A
:1035C000F0B50346002400260025002040F66A17C7
:1035D000B94200D100BF1846C1F3421401F01F06E2
:1035E000012707FA06F5012C01D10C3004E0022C6A
:1035F00001D1103000E014301AB107682F43076082
:1036000002E00768AF430760F0BD00002DE9F04716
:1036100086B005460E460024A24600BFA1460027FC
:10362000B08900B100BF2F462C8A4CF6FF700440D1
:10363000F08804432C82AC894EF6F3100440B08825
:1036400031890843718908430443AC81AC8A4FF641
:10365000FF400440B0890443AC8201A8FFF708FC96
:103660001F48874202D1DDF810A001E0DDF80CA070
:10367000A88900F4004040B10AEBCA0000EB0A1030
:1036800031684900B0FBF1F807E00AEBCA0000EB33
:103690000A1031688900B0FBF1F86420B8FBF0F043
:1036A00004012009642101FB1089A88900F400406D
:1036B00040B1322000EBC900B0FBF1F000F0070090
:1036C000044308E0322000EB09106421B0FBF1F064
:1036D00000F00F0004432C8106B0BDE8F087000025
:1036E0000038014001468888C0F308007047C1F3E4
:1036F00008028280704700BFFEE7000010B586B068
:103700000446012144F20400FFF792FB4FF40070DD
:10371000ADF8140003208DF8160018208DF817005E
:1037200005A91C48FDF758FE4FF48060ADF8140061
:1037300004208DF8170005A91648FDF74DFE252039
:103740008DF8000003208DF801008DF802000120A3
:103750008DF803006846FEF741FF01940020ADF8A4
:103760000800ADF80A00ADF80C00ADF810000C2010
:10377000ADF80E0001A90848FFF748FF012240F20A
:1037800025510548FFF71CFF01210348FFF7CCFE38
:1037900006B010BD000801400038014010B586B0E9
:1037A000044601210820FFF743FB01218804FFF7AD
:1037B0002FFB18208DF817004FF48060ADF814002F
:1037C00003208DF8160005A91D48FDF705FE04200D
:1037D0008DF817004002ADF8140003208DF8160094
:1037E00005A91748FDF7F8FD01940020ADF8100079
:1037F0000C20ADF80E000020ADF80C00ADF80A006A
:10380000ADF8080001A90F48FFF700FF01210D489E
:10381000FFF78AFE012240F225510A48FFF7D0FE49
:1038200027208DF8000001208DF8030000208DF87E
:1038300001008DF802006846FEF7D0FE06B010BD0C
:10384000000C01400048004070B504460D460026BB
:103850000DE014F8011B0748FFF749FF00BF4021A6
:103860000448FFF776FE0028F9D0701C86B2AE42FD
:10387000EFDB70BD0048004010B5044621464020F3
:10388000FDF7D0FF10BD00000FB4054B10B503A924
:10389000044A029800F07EF910BC5DF814FB0000A9
:1038A000C1510008580000200FB4084B10B504A9FE
:1038B00002AA039800F06EF9044602A9002000F065
:1038C00000FD204610BC5DF814FB0000C342000858
:1038D000490050EAC12018BF04204A0D18BF40F02B
:1038E000010040F2FF72B2EB515F08BF40F00200EE
:1038F000012808BF052070472DE9F0414F1E00EB5D
:10390000C7010446D1E9000115461E4637F00602FC
:103910000DD02A463346FCF722FE7F1E04EBC70378
:10392000D3E90023FCF774FD37F00602F1D1022F32
:1039300025D0042F13D0062F18BFBDE8F0812A46EA
:103940003346FCF70CFED4E90A23FCF761FD2A4656
:103950003346FCF704FED4E90823FCF759FD2A4658
:103960003346FCF7FCFDD4E90623FCF751FD2A465B
:103970003346FCF7F4FDD4E90423FCF749FD2A465D
:103980003346FCF7ECFDD4E90223FCF741FD2A465F
:103990003346FCF7E4FDD4E90023BDE8F041FCF731
:1039A00037BD00000022134610460149FCF749BE0E
:1039B0000000F03FFCF72CBD0022134610461146D4
:1039C000FCF73FBE40F2013200204FF0E041FDF72E
:1039D00079B80000024A00201107FDF773B8000013
:1039E00001FDFFFF02E008C8121F08C1002AFAD13A
:1039F00070477047002001E001C1121F002AFBD16F
:103A0000704700000149086070470000C8010020AD
:103A10002DE9FF5F82B00021DDE90430020DDDF801
:103A200040B0034318D044F61050A2F2FF32424394
:103A30001514119801281FD0A5EB0B00401C5FEA5C
:103A4000000A4FF000064E4FDFF83891B04650465E
:103A500015D5CAF1000413E0119801244AA30128E6
:103A600001D16FEA0B010298119AC0E90031C0E957
:103A7000024206B0BDE8F09FCBF10000DFE704464C
:103A80000021404A491842EB0450CDE9001012E0F1
:103A9000E00707D032463B4640464946FCF75FFD0B
:103AA0008046894632463B4610461946FCF757FD8C
:103AB00006460F466410002CEAD1DDE90401DDE979
:103AC0000023BAF1000F06DAFCF749FD42464B46E7
:103AD000FCF745FD05E0FCF7B4FD42464B46FCF71C
:103AE000B0FD04460E460022284BFCF797FE03D893
:103AF0004FF0FF30014607E00022254B20463146BB
:103B0000FCF786FCFDF746F8102409E0002C0ADBE0
:103B10000A220023FCF7E0FE039B30321A55641E94
:103B200050EA0102F2D1641C039AC4F11103144457
:103B3000119A012A03D0012208430DD10AE008435B
:103B400004D000204FF0110B119072E7A3EB0B058E
:103B50006D1E0DE05B4504DD4FF0000205F101052F
:103B600004E003DA4FF00002A5F10105002AECD0D1
:103B700002981199C0E90231C0E9004579E70000D7
:103B8000000014400000F03F300000000000F0434F
:103B90000000E03F2DE9FF4F95B09B468946064661
:103BA00000250FE2252877D100242746F84A012175
:103BB000059400E0044316F8013F203B01FA03F0AE
:103BC0001042F7D130782A2811D06FF02F033078C7
:103BD000A0F13002092A16D8059A44F0020402EB3B
:103BE000820203EB42021044761C0590EFE759F87D
:103BF000042B0592002A03DA504244F40054059045
:103C000044F00204761C30782E2816D116F8010FE5
:103C100044F004042A280DD06FF02F023078A0F170
:103C20003003092B09D807EB870302EB4303C718BE
:103C3000761CF3E759F8047B761C30786C280FD09B
:103C400006DC4C2817D068280DD06A2814D104E06F
:103C5000742810D07A280FD10DE044F400140AE043
:103C600044F4801401E044F440147278824202D19A
:103C700004F58014761C761C307866280BD013DC93
:103C8000582877D009DC002875D04528F6D046287A
:103C9000F4D047281AD19DE118E0632835D0642874
:103CA00079D0652812D195E1702873D008DC672897
:103CB000F1D069286FD06E280DD06F2806D1B5E0FD
:103CC00073282CD0752875D0782874D05A46179947
:103CD00090476D1C75E1C4F30250022809D00328F7
:103CE0000DD0D9F8001004280DD00D6009F1040999
:103CF00067E1D9F80010EA17C1E90052F6E7D9F8F0
:103D000000100D80F2E70D70F0E719F8041B8DF834
:103D1000001000208DF80100EA46012003E059F868
:103D200004AB4FF0FF3061074FF0000102D40DE00B
:103D300008F101018846B9420FDA8045F8DB1AF82C
:103D400008100029F4D108E008F1010188468142F9
:103D5000FADB1AF808100029F6D105985B46A0EBAB
:103D6000080721463846179A00F094FA284400EBD9
:103D7000080507E04DE029E10DE01AF8010B5A466D
:103D800017999047B8F10108F7D25B4621463846AB
:103D9000179A13E142E00A220092C4F302524FF054
:103DA000000A022A08D059F804CB032A4FEAEC7122
:103DB0000AD00DE029E02AE009F1070121F007020D
:103DC000F2E802C1914609E00FFA8CFC4FEAEC716F
:103DD000042A03D14FFA8CFC4FEAEC71002907DA70
:103DE0000A460021DCF1000C61EB02012D2202E009
:103DF000220504D52B228DF80420012203E0E207DE
:103E000001D02022F7E7904659E00A2102E0102273
:103E10000DE010214FF0000A00910BE010224FF04E
:103E2000000A44F004040827009203E008224FF03F
:103E3000000A0092C4F30252022A05D059F804CBBA
:103E40000021032A08D009E009F1070121F0070247
:103E5000F2E802C1914605E01FFA8CFC042A01D168
:103E60000CF0FF0C4FF00008220728D5702806D070
:103E7000009B83F0100353EA0A0305D00EE04022B2
:103E80008DF80420012208E05CEA010206D030220D
:103E90008DF804208DF8050002229046009B83F0E7
:103EA000080353EA0A030AD15CEA010201D162075E
:103EB00005D530228DF804204FF001087F1E5828C8
:103EC00004D034A003900EA802900DE036A0F9E7CC
:103ED00053466046009AFCF7FFFC84460398825CD8
:103EE0000298401E029002705CEA0100F0D1029834
:103EF00006A9081A00F1200A600702D524F48034CC
:103F000000E00127574502DDA7EB0A0000E0002092
:103F100000EB0A01009005984144401A0590E00327
:103F200006D45B462146179A059800F0B3F905447C
:103F3000002706E001A85A46C05D179990476D1CFE
:103F40007F1C4745F6DBE0030CD55B462146179AFC
:103F5000059800F09FF9054404E030205A4617996F
:103F600090476D1C0099481E00900029F5DC08E080
:103F7000029802995A460078491C02911799904775
:103F80006D1CBAF10001AAF1010AF1DC65E1000043
:103F9000092801003031323334353637383961621F
:103FA00063646566000000003031323334353637E3
:103FB00038394142434445460000000000F058F9BA
:103FC0000544761C307800287FF4ECAD19B0284603
:103FD000BDE8F08F620700D4062709F1070222F03E
:103FE000070CFCE80223E14603F000485FEA080CF6
:103FF00002D00FF2702C0DE05FEA045C02D50FF2E4
:10400000682C07E05FEAC47C02D00FF2602C01E06C
:10401000AFF2700C4FF0FF3823F00043CDF850C0E2
:1040200065280CD006DC452809D046281DD0472835
:104030003DD13DE0662818D067287ED138E00021C8
:10404000112F01DB112000E0781CCDE9000106A949
:104050000EA8FFF7DDFCDDE90F010E9A03910021A8
:10406000009207F1010A04914DE04FF000400097E3
:10407000CDE9011006A90EA8FFF7CAFCDDE90F0281
:1040800003920E9B11990022DDF80CA0009304927C
:1040900011B9791C00EB010AB7EB0A0004D4C0F196
:1040A000FF3007F1010A0490AAEB0700019044E0F9
:1040B000012F00DA01270021112F01DD112000E07E
:1040C0003846CDE9000106A90EA8FFF7A1FCDDE9FD
:1040D0000F010E9A0391002104910092BA46210724
:1040E0000CD40399514500DA8A46BAF1010F05DD77
:1040F000009AAAF10101515C302908D0B84202DAD5
:1041000010F1040F06DA0121CDE9011015E0AAF142
:104110000101E9E7002805DC049901440491AAEBB8
:10412000000102E0411C514500DD8A460499401A15
:10413000401C01904FF000400290200704D40198E9
:10414000504501DBCDF8048000208DF84F00029827
:104150000DF14F07B0F1004F25D02B200E900298A3
:104160004FF0020800280CDA404202902D200E90F9
:1041700007E00A210298FCF799FB3031029007F81A
:10418000011DB8F10001A8F10108F2DC0298002835
:10419000EFD1791E0E980870307800F0200040F0C2
:1041A000450007F8020D12A8C01B00F1070814987B
:1041B000007800B1012000EB0A01019801EBE071E9
:1041C00005984144401A401E0590E00306D45B4622
:1041D0002146179A059800F05DF805441498007878
:1041E00018B15A46179990476D1CE00324D55B46D9
:1041F0002146179A059800F04DF805441CE00498F4
:10420000002807DBDDE90301884203DD0098405CFC
:10421000179901E0179930205A469047049805F104
:104220000105401C04900198401E019004D12E20ED
:104230005A46179990476D1CBAF10001AAF1010A7C
:10424000DDDC05E017F8010B5A46179990476D1C05
:10425000B8F10001A8F10108F4DC5B462146179A89
:104260000598ABE62D0000002B00000020000000A8
:104270002DE9F041044600251E461746880404D463
:1042800005E039462020B0476D1C641EF9D528464C
:10429000BDE8F0812DE9F041044600251E46904618
:1042A000C80301D5302700E02027880404D505E0A5
:1042B00041463846B0476D1C641EF9D52846BDE816
:1042C000F0810A68531C0B60107070472DE9FE4F97
:1042D00006460F460025684600F0A8FF002442E08D
:1042E00056F8240057F82410A0EB010ABAF1000F89
:1042F00001DB514601E0CAF100010846FCF710FA63
:1043000083464FF08F41FCF745F880465DF8240066
:104310000021FCF7B7FA16D05DF824104046FCF7F0
:1043200039F882464FF07E51FBF7FCFF814629F0B9
:10433000004A0F48416A5046FCF7AEFA12D20120FB
:10434000A04005430EE00A48C1694046FCF79AFACE
:1043500005D30748016A4046FCF79EFA02D20120C5
:10436000A0400543641C032CBADB2846BDE8FE8F41
:10437000987F000810B54FF400510D48FDF7C0F8C4
:1043800000F098F84FF480410948FDF7B9F8012092
:1043900000F062F94FF400510548FDF7B3F8012031
:1043A00000F05AF94FF400510148FDF7A9F810BD8B
:1043B000000C014008B501210820FEF739FD4FF43B
:1043C000C040ADF8000003208DF8020010208DF8E9
:1043D000030069460648FCF7FFFF4FF4005104480C
:1043E000FDF790F84FF480410148FDF78BF808BDC8
:1043F000000C014010B54FF400510D48FDF780F856
:1044000000F058F84FF480410948FDF77BF801208F
:1044100000F022F94FF400510548FDF773F8012030
:1044200000F01AF94FF400510148FDF769F810BD8A
:10443000000C014070B505460026002400F02AF863
:1044400000BF1BE04FF400511148FDF759F801205F
:1044500000F002F94FF400510D48FDF753F86006E3
:10446000040E4FF480410A48FDF741F808B1601C82
:10447000C4B2012000F0F0F8701CC6B2082EE1DBD7
:1044800015B9FFF7B7FF01E0FFF774FF204670BDD5
:10449000000C014008B54FF48040ADF80000482002
:1044A0008DF8030069460248FCF796FF08BD00003E
:1044B000000C014008B54FF48040ADF80000032027
:1044C0008DF8020010208DF8030069460148FCF7C2
:1044D00083FF08BD000C014070B504460025FFF7BE
:1044E000E9FF4FF400511548FDF70AF800BF22E03C
:1044F00004F08000002805DD4FF480410F48FDF7EF
:1045000001F804E04FF480410C48FCF7F9FF600625
:10451000040E4FF400510948FCF7F4FF012000F0AD
:104520009BF84FF400510548FCF7EAFF012000F02A
:1045300093F8681CC5B2082DDADB70BD000C014091
:1045400010B5FFF7B7FF4FF480410C48FCF7DAFFD6
:104550004FF400510948FCF7D5FF012000F07CF82A
:104560004FF480410548FCF7CBFF012000F074F8C0
:104570004FF400510148FCF7C3FF10BD000C01408F
:1045800010B5FFF797FF4FF400510C48FCF7B8FF48
:104590004FF480410948FCF7B3FF4FF4005107483E
:1045A000FCF7B0FF012000F057F84FF480410348BA
:1045B000FCF7A8FF012000F04FF810BD000C0140EF
:1045C00010B50024FFF766FF4FF480411148FCF757
:1045D00099FF012000F040F84FF400510D48FCF71E
:1045E00091FF012000F038F805E0601CC4B20A2CED
:1045F00001DD012010BD4FF480410648FCF777FF34
:104600000028F2D14FF400510248FCF779FF002056
:10461000F0E70000000C014010B5FFF7CBFE4FF4AF
:1046200000700549088005480078FCF75FFC10B170
:1046300003A0FFF729F910BD780100207A010020BE
:10464000696E697420636F6E66696772656720655D
:1046500072726F720D0A000010B50446204600F019
:1046600049F810BD10B56FF00400FEF7E1FC0A48F0
:1046700000680A49B0FBF1F0094908700846007863
:1046800000EB4001C1EBC0104FF6FF7101EAC00022
:104690000449088010BD00004000002000127A008C
:1046A00054000020560000200146114A12884A4357
:1046B0004FF0E0235A6100229A611A46126942F0D3
:1046C00001021A6100BF4FF0E022106900F0010200
:1046D0001AB100F48032002AF5D04FF0E0221269BE
:1046E00022F001024FF0E0231A6100229A61704724
:1046F000560000200146114A12784A434FF0E02349
:104700005A6100229A611A46126942F001021A6146
:1047100000BF4FF0E022106900F001021AB100F46E
:104720008032002AF5D04FF0E022126922F0010217
:104730004FF0E0231A6100229A6170475400002074
:1047400038B5044664B120208DF8000028208DF88B
:10475000010030208DF8020038208DF8030004E0BD
:10476000A32204216846FBF720FD6A46042140F697
:104770009E2002F047F901F031FD38BD3EB50446F8
:1047800002208DF80000CA208DF80100E3208DF88A
:10479000020009208DF803006A460421682002F017
:1047A00031F9A3208DF8000004F0400048B1C0208A
:1047B0008DF80100C8208DF80200C2208DF803009A
:1047C00006E0A3208DF801008DF802008DF80300AB
:1047D00004F4C07048B1C4208DF80400CC208DF8DA
:1047E0000500C6208DF8060006E0A3208DF8040021
:1047F0008DF805008DF80600A3208DF807008DF8D0
:1048000008008DF809006A460A2140F6A72002F048
:10481000F9F804F0030018B120208DF8000002E040
:10482000D8208DF800006A46012140F6B62002F03B
:10483000E9F804F0200018B1012000F0ADF802E022
:10484000002000F0A9F804F4C07008B304F48070EC
:1048500060B1B2208DF800008B208DF80100B620E9
:104860008DF802009B208DF803000BE0B0208DF83E
:10487000000080208DF80100B4208DF80200902007
:104880008DF803006A46042140F6A22002F0BAF82F
:1048900004F0010020B3F8208DF800006A460121E1
:1048A0004FF40B6002F0AEF8FA21072000F0AEFAE8
:1048B000072000F075FA012000F095FA642000F05E
:1048C00075FB4FF4FA7000F084FBC821304800F00B
:1048D00025FA282000F03EFA0A2000F04EFA08E0FF
:1048E000D8208DF800006A4601214FF40B6002F0D9
:1048F00089F804F0020018B1D9208DF8000002E018
:10490000D8208DF800006A46012140F23D7002F087
:1049100079F804F0040018B1012000F069F802E011
:10492000002000F065F804F0100018B10120FFF736
:1049300007FF02E00020FFF703FF44F008001549DD
:10494000488101F04BFC00201249887304F04000BC
:1049500018B10846807B801D887304F4C07020B1B4
:104960000C48807B801D0B49887304F0140020B133
:104970000848807B10300749887304F0030020B199
:104980000448807B001D0349887300203EBD000061
:1049900009E3CA02240A00203EB504466CB10EA108
:1049A000D1E900208968CDE9002002916A460921F9
:1049B0004FF4976002F026F83EBD0AA2D2E900103B
:1049C0009268CDE9010200916A4609214FF497608F
:1049D00002F018F8F0E70000B8AAB38DB4980D35CE
:1049E0005D000000B8AAAAAAB088C3C5C70000002D
:1049F00038B5044664B1C0208DF80000C2208DF89F
:104A00000100C4208DF80200C6208DF8030004E0E8
:104A10008B2204216846FBF7C8FB6A46042140F656
:104A2000982001F0EFFF01F0D9FB38BD10B5C82385
:104A30004FF48062024940F6F63001F0C3FA10BD2F
:104A4000C07F000830B585B0044616A207CA02AB85
:104A500007C3C82C03DD4FF0FF3005B030BDC820C0
:104A600090FBF4F0401E85B2280A8DF80000E8B2F1
:104A70008DF801006A46022140F2162001F0C2FFC3
:104A800010B14FF0FF30E8E702AA0C2140F6C12038
:104A900001F0B8FF10B14FF0FF30DEE70448848129
:104AA0000020DAE7FEF2ABC4AAF1DFDFBBAFDFDF45
:104AB000240A00201FB504464848007A00F003008D
:104AC00054F8200001904548007A00F0040010B12D
:104AD0000198404201904148007AC0F3C10054F867
:104AE000200002903D48007A00F0200010B10298AA
:104AF000404202903948007AC0F3811054F82000F7
:104B000003903648008900F4807010B10398404249
:104B100003903349019880FB0101800F40EA810036
:104B200001902F49029880FB0110820042EA9170A7
:104B300002902B49039880FB0110820042EA917099
:104B400003900198000E8DF800000198000C8DF87C
:104B500001000198000A8DF802000198C0B28DF89A
:104B600003006A4604214FF4747001F04BFF18B142
:104B70004FF0FF3004B010BD0298000E8DF8000019
:104B80000298000C8DF801000298000A8DF80200CE
:104B90000298C0B28DF803006A4604214FF4757084
:104BA00001F030FF10B14FF0FF30E3E70398000E43
:104BB0008DF800000398000C8DF801000398000A9E
:104BC0008DF802000398C0B28DF803006A460421F4
:104BD0004FF4767001F016FFCCE70000240A0020A5
:104BE00009E3CA0210B586B0044647A000680390E6
:104BF00046A00068029046A00068019045A00068A9
:104C0000009004F0030003A9085C8DF8140003A8C9
:104C1000C4F3C101405C8DF8150003A8C4F38111F1
:104C2000405C8DF8160004F0030002A9085C8DF8C2
:104C3000100002A8C4F3C101405C8DF8110002A865
:104C4000C4F38111405C8DF8120005AA032140F2E3
:104C5000264001F0D7FE18B14FF0FF3006B010BD6E
:104C600004AA032140F22A4001F0CCFE10B14FF01B
:104C7000FF30F3E7019805900098049004F00400D9
:104C800058B19DF8140040F001008DF814009DF813
:104C9000100040F001008DF8100004F0200058B121
:104CA0009DF8150040F001008DF815009DF81100E9
:104CB00040F001008DF8110004F4807058B19DF8A7
:104CC000160040F001008DF816009DF8120040F02B
:104CD00001008DF8120005AA03214FF4886001F04D
:104CE00091FE10B14FF0FF30B8E704AA032140F263
:104CF000314001F087FE10B14FF0FF30AEE70648BB
:104D000004810020AAE700004CCD6C000CC92C00E7
:104D10003656760026466600240A0020F8B5054679
:104D20000E464FF47A7095FBF0F000FB06F4200E6F
:104D30008DF80000200C8DF80100200A8DF802008B
:104D4000E0B28DF803006A4604214FF4AE7001F022
:104D500059FEF8BD38B50446052094FBF0F084B246
:104D600020128DF80000E0B28DF801006A460221A1
:104D70004FF4AD7001F046FE38BD38B5044605204D
:104D800094FBF0F084B220128DF80000E0B28DF8B0
:104D900001006A4602214FF4AC7001F033FE38BDC9
:104DA00038B504460020009004F0010020B19DF8C1
:104DB000000040F03000009004F0020020B19DF8A7
:104DC000000040F00C00009004F0040020B19DF8B9
:104DD000000040F0030000906A4601214FF4A470E7
:104DE00001F010FE38BD38B50446012C01DA01246B
:104DF00002E0042C00DD0424601EC0B200906A466C
:104E0000012140F24F1001F0FDFD38BD2DE9FC47B6
:104E100006460F4606F0070010B1B7F5C86F03DD70
:104E20004FF0FF30BDE8FC873846FBF782FC814637
:104E30005949FBF7AFFA8046684600F0F1FE9DF84D
:104E40000000022806D0042816D0082826D01028F2
:104E500048D135E04FF08D414046FBF769FA814675
:104E6000FBF796FC84B24D494046FBF761FA814658
:104E7000FBF78EFC85B238E04FF08C414046FBF7E3
:104E800057FA8146FBF784FC84B245494046FBF75C
:104E90004FFA8146FBF77CFC85B226E04FF08B4150
:104EA0004046FBF745FA8146FBF772FC84B23D4968
:104EB0004046FBF73DFA8146FBF76AFC85B214E0F9
:104EC0004FF08A414046FBF733FA8146FBF760FC1E
:104ED00084B235494046FBF72BFA8146FBF758FC74
:104EE00085B202E04FF0FF309CE700BF20128DF842
:104EF0000400E0B28DF8050028128DF80600E8B233
:104F00008DF8070006F00100A0B101AA02214FF4BC
:104F1000EA7001F077FD10B14FF0FF3082E70DF13C
:104F2000060202214FF4927001F06CFD10B14FF0B7
:104F3000FF3077E706F00200A0B101AA02214FF48A
:104F4000EC7001F05FFD10B14FF0FF306AE70DF13A
:104F5000060202214FF4947001F054FD10B14FF09D
:104F6000FF305FE706F00400A0B101AA02214FF470
:104F7000EE7001F047FD10B14FF0FF3052E70DF138
:104F8000060202214FF4967001F03CFD10B14FF083
:104F9000FF3047E7002045E7000048430000404657
:104FA0000000C045000040450000C04438B504463C
:104FB000052094FBF0F085B228128DF80000E8B2CD
:104FC0008DF801006A4602214FF4EF7001F01AFDDE
:104FD00038BD38B50446052094FBF0F085B22812A0
:104FE0008DF80000E8B28DF801006A4602214FF406
:104FF000ED7001F007FD38BD2DE9F04F87B0614A33
:1050000061496248FCF75AFD5E48B0F90000FBF7C1
:1050100095FB044600224FF0804301F033FDCDE9BB
:1050200000015948B0F90000FBF788FB0646002252
:105030004FF0804301F026FD04460D465348B0F979
:105040000000FBF77BFB064600224FF0804301F097
:1050500019FD804622462B46FBF7DAF98246DDE948
:105060000023FBF7D5F9CDE9020102F0A1FACDE961
:105070000401FBF7A1FB4649086046480068FBF7BE
:10508000BAFB21F0004104460022434BFBF7C6FB6C
:1050900017D342480068FBF7AEFB21F000410446FD
:1050A00000223D4BFBF7BAFB0BD33D480068FBF7F2
:1050B000A2FB21F0004104460022374BFBF7AEFB78
:1050C00003D201203749087002E0002035490870FA
:1050D0002F48006845F2F051884205DC2C480068F2
:1050E00042F6E061884202DA00202F4908702E481B
:1050F0000078401C2C49087008460078032803DC1F
:1051000001202A49087005E0032027490870002083
:10511000264908702548007810B92248007818B14F
:1051200001202349087002E0002021490870002076
:10513000204908604FF49670FFF7B6FA1C480078D3
:1051400001280CD11B49086000201B49C1F8AC01A3
:1051500001201A4908604FF49670FFF7A5FA002065
:10516000144908604FF49670FFF79EFA0020124928
:10517000C1F8A001012011490C31086007B0BDE859
:10518000F08F00000400002002000020000000203A
:10519000280000203000002000004440340000209F
:1051A00038000020230000202C00002024000020D4
:1051B000220000208081214200002142A0012142E2
:1051C00000BF054A128802F04002002AF9D0C2B29C
:1051D000014B1B1D1A8070470038014010B5002894
:1051E00021D0114B0022001F196803E0814203D82F
:1051F0000A4649680029F9D152B11368841A9C42C1
:1052000004D1006818441060104602E0506000E0CD
:10521000186039B102680B1A934203D10B681A4423
:1052200002604968416010BDC00100207CB50546A0
:1052300028494968087801AB04220D21FCF7C4FD18
:1052400008B107207CBD9DF80700C0F301109DF850
:10525000041001F0E00140EAE1008DF800009DF843
:105260000700C0F381009DF8051001F0E00140EA5D
:10527000E1008DF801009DF8070000F003009DF8A3
:10528000061001F0E00140EAE1008DF80200002480
:105290001CE01DF8040018B9002045F8240013E0B4
:1052A0000D4845F8240006E055F824000B49FBF7AB
:1052B0003FF845F824001DF80400401EC0B20DF868
:1052C00004000028F0D100BF601CC4B2032CE0DB56
:1052D0000020B7E7840100207B14AE3E1D5A843FB6
:1052E0002DE9F04F87B005460C46914601208DF818
:1052F000100000208DF81100FE4A1268917CFD4AD2
:105300005268107804AB0222FCF726FE20B14FF061
:10531000FF3007B0BDE8F08FC820FFF7C5F90020C7
:105320008DF81000F34A1268D17BF24A5268107867
:1053300004AB0122FCF710FE10B14FF0FF30E8E79C
:10534000EC4A12685179EB4A5268107804AB01229A
:10535000FCF702FE10B14FF0FF30DAE7E54A1268C1
:10536000917CE44A5268107804AB0122FCF7F4FD0A
:1053700010B14FF0FF30CCE7DE4A1268D17DDD4A34
:105380005268107804AB0122FCF7E6FD10B14FF033
:10539000FF30BEE7D74A12681179D64A52681078B2
:1053A00004AB0122FCF7D8FD10B14FF0FF30B0E79D
:1053B0000C208DF81000CF4A12681179CD4A52683E
:1053C000107804AB0122FCF7C7FD10B14FF0FF309D
:1053D0009FE70F20FFF768F9C648806A407A8DF88A
:1053E0001000C44A12689178C24A5268107804AB1F
:1053F0000122FCF7B1FD10B14FF0FF3089E7BD4845
:10540000806A007A8DF81000BA4A12685178B94A59
:105410005268107804AB0122FCF79EFD10B14FF0EA
:10542000FF3076E7B9F1000F07D0B248806A807A82
:1054300040F0E0008DF8100004E0AE48806A807A09
:105440008DF81000AB4A12689179AA4A5268107818
:1054500004AB0122FCF780FD10B14FF0FF3058E79C
:10546000B9F1000F07D0A348806AC07A40F0E0008D
:105470008DF8100003E0A048C07A8DF810009D4A16
:105480001268D1799B4A5268107804AB0122FCF76C
:1054900063FD10B14FF0FF303BE7B9F1000F02D0D0
:1054A000C820FFF701F940208DF81000914A1268DA
:1054B0001179904A5268107804AB0122FCF74CFD38
:1054C00010B14FF0FF3024E778208DF81000894AA2
:1054D00012685179874A5268107804AB0122FCF7B0
:1054E0003BFD10B14FF0FF3013E783498889FFF788
:1054F000DBF800208DF810007E4A126851797D4A51
:105500005268107804AB0122FCF726FD10B14FF071
:10551000FF30FEE6774A1268917A764A5268107830
:1055200004AB0222FCF750FC10B14FF0FF30F0E664
:105530009DF811009DF8101040EA012B0C209BFBF8
:10554000F0F0C6B20020A86068602860A0606060CB
:105550002060824665E0674A1268D17A654A5268DF
:10556000107804AB0C22FCF72FFC10B14FF0FF3089
:10557000CFE69DF811009DF8101040EA012000B21E
:10558000ADF808009DF813009DF8121040EA0120C4
:1055900000B2ADF80A009DF815009DF8141040EA1D
:1055A000012000B2ADF80C00BDF9081020680844D5
:1055B0002060BDF90A10606808446060BDF90C10F5
:1055C000A0680844A0609DF817009DF8161040EAF6
:1055D000012000B2ADF800009DF819009DF81810E8
:1055E00040EA012000B2ADF802009DF81B009DF8D2
:1055F0001A1040EA012000B2ADF80400BDF9001015
:10560000286808442860BDF902106868084468608A
:10561000BDF90410A8680844A8600AF1010000F070
:10562000FF0AB24597DB3448D0F800C02868C1179C
:10563000090441EA10410704624600233846FAF79C
:1056400071FD32460023CDE90201FAF76BFD2860B7
:105650002948D0F800C06868C117090441EA104120
:105660000704624600233846FAF75CFD3246002301
:10567000CDE90201FAF756FD68601F48D0F800C076
:10568000A868C117090441EA1041070462460023D3
:105690003846FAF747FD32460023CDE90201FAF712
:1056A00041FDA8601448D0F804C02168C817000460
:1056B00040EA11480F046246002338464146FAF793
:1056C00031FD32460023CDE90201FAF72BFD2060BF
:1056D0000948D0F804C06068C117090441EA1041C4
:1056E0000704624600233846FAF71CFD32460023C1
:1056F00004E0000084010020987F0008CDE9020149
:10570000FAF710FD60601148D0F804C0A068C11716
:10571000090441EA10410704624600233846FAF7BB
:1057200001FD32460023CDE90201FAF7FBFCA0603F
:10573000A068002804DDA068A0F58030A06003E028
:10574000A06800F58030A0600020E2E5987F0008A6
:105750002DE9FC5F06460F4600253D49496808785B
:1057600001AB03220D21FCF72FFB10B10720BDE890
:10577000FC9F9DF8040000F01F008DF804009DF8C8
:10578000050000F01F008DF805009DF8060000F0F0
:105790001F008DF80600002456E056F8240057F844
:1057A0002410A0EB010BBBF1000F01DB594601E017
:1057B000CBF100010846FAF7B3FF4FF08F4100909C
:1057C000FAF7E8FD814601A8005D68B32149086841
:1057D000FAF7AFFF834659461F48FAF7DBFD8046CC
:1057E00004E01E494046FAF7A3FD804601A8005D8B
:1057F000401EC0B201A908550028F2D141464846D2
:10580000FAF7C8FD83464FF07E51FAF78BFD8246CA
:105810002AF0004B0F4881695846FBF73DF812D239
:105820000120A04005430EE00A4801694846FBF705
:1058300029F805D3074841694846FBF72DF802D2FD
:105840000120A0400543641C032CA6DB28468EE7FC
:1058500084010020987F000800B04C4554E3853F48
:1058600010B50446204600F00FF80346E01C00F097
:105870000BF843EAC00083B2A01D00F005F843EA2C
:10588000801083B2184610BD014691F90020002A0D
:1058900001DD00201EE091F90020002A01DA042039
:1058A00018E091F90120002A01DD012012E091F9B0
:1058B0000120002A01DA05200CE091F90220002ADB
:1058C00001DD022006E091F90220002A01DA06201B
:1058D00000E007207047000000BF002400BF00BFA9
:1058E000FBF765FE00204A490860FCF7C6FE072367
:1058F00048A201211E20FDF71FF800BF09E00A2180
:1059000001EB0411C8B222460321FDF733F8601CF5
:10591000C4B2072CF3DB4FF49660FEF7C5FEFCF72C
:10592000ACFE32233DA201210020FDF705F8FCF773
:1059300097FE1CE00C2346A200210846FCF7FCFF62
:10594000C820FEF7B1FE0C2344A200210846FCF754
:10595000F3FFC820FEF7A8FE434801780078401EF8
:10596000414A107019B901204049087003E000F065
:1059700007F90028DED100BFFCF77FFE01203C497B
:105980000860FDF79BFC01203A49C1F8AC010020FA
:10599000394908603AE0002038490860FBF7BAFD51
:1059A00080464046FAF7C5FE06464FF07851FAF7B2
:1059B000BFFC054629463248FAF7BAFC814629461B
:1059C0003048FAF7B5FC82462946FAF7B1FC07469B
:1059D0004946FAF755FC06462B49FAF751FC2B4984
:1059E000086000202A4908700C232A4A0721FCF786
:1059F000A3FF2948FBF75CFFFFF7FEFAFDF786F9E6
:105A0000FBF772FB2548007925490860C3E70000D1
:105A10001400002057656C636F6D65005468652045
:105A20006E6574776F726B2069732020636F6E6E82
:105A3000656374696E672C2020202020706C65617E
:105A400073652077616974652E2E2E20000000009A
:105A50004D5055204552524F5221210020202020E8
:105A600020202020202020003C00002021000020B9
:105A7000B401224200002142A00121428081214242
:105A80009D2C35BEEBCA0DB79C644B43180000201B
:105A900022000020B3030020240800207B01002006
:105AA0001C000020F0B50B30154D20F0070100243C
:105AB000144A0FE003688B420BD38B4205D95E1A60
:105AC00043184768C3E9006700E04368136002C0F9
:105AD00004E0021D10680028ECD12046002802D105
